{
	"src/UniswapV3Quoter.sol": {
		"UniswapV3Quoter": {
			"abi": [
				{
					"inputs": [
						{
							"components": [
								{
									"internalType": "address",
									"name": "pool",
									"type": "address"
								},
								{
									"internalType": "uint256",
									"name": "amountIn",
									"type": "uint256"
								},
								{
									"internalType": "bool",
									"name": "zeroForOne",
									"type": "bool"
								}
							],
							"internalType": "struct UniswapV3Quoter.QuoteParams",
							"name": "params",
							"type": "tuple"
						}
					],
					"name": "quote",
					"outputs": [
						{
							"internalType": "uint256",
							"name": "amountOut",
							"type": "uint256"
						},
						{
							"internalType": "uint160",
							"name": "sqrtPriceX96After",
							"type": "uint160"
						},
						{
							"internalType": "int24",
							"name": "tickAfter",
							"type": "int24"
						}
					],
					"stateMutability": "nonpayable",
					"type": "function"
				},
				{
					"inputs": [
						{
							"internalType": "int256",
							"name": "amount0Delta",
							"type": "int256"
						},
						{
							"internalType": "int256",
							"name": "amount1Delta",
							"type": "int256"
						},
						{
							"internalType": "bytes",
							"name": "data",
							"type": "bytes"
						}
					],
					"name": "uniswapV3SwapCallback",
					"outputs": [],
					"stateMutability": "view",
					"type": "function"
				}
			],
			"devdoc": {
				"kind": "dev",
				"methods": {},
				"version": 1
			},
			"evm": {
				"assembly": "    /* \"src/UniswapV3Quoter.sol\":114:1423  contract UniswapV3Quoter {... */\n  mstore(0x40, 0x80)\n  callvalue\n  dup1\n  iszero\n  tag_1\n  jumpi\n  0x00\n  dup1\n  revert\ntag_1:\n  pop\n  dataSize(sub_0)\n  dup1\n  dataOffset(sub_0)\n  0x00\n  codecopy\n  0x00\n  return\nstop\n\nsub_0: assembly {\n        /* \"src/UniswapV3Quoter.sol\":114:1423  contract UniswapV3Quoter {... */\n      mstore(0x40, 0x80)\n      callvalue\n      dup1\n      iszero\n      tag_1\n      jumpi\n      0x00\n      dup1\n      revert\n    tag_1:\n      pop\n      jumpi(tag_2, lt(calldatasize, 0x04))\n      shr(0xe0, calldataload(0x00))\n      dup1\n      0x5af288b1\n      eq\n      tag_3\n      jumpi\n      dup1\n      0xfa461e33\n      eq\n      tag_4\n      jumpi\n    tag_2:\n      0x00\n      dup1\n      revert\n        /* \"src/UniswapV3Quoter.sol\":250:772  function quote(QuoteParams memory params)... */\n    tag_3:\n      tag_5\n      0x04\n      dup1\n      calldatasize\n      sub\n      dup2\n      add\n      swap1\n      tag_6\n      swap2\n      swap1\n      tag_7\n      jump\t// in\n    tag_6:\n      tag_8\n      jump\t// in\n    tag_5:\n      mload(0x40)\n      tag_9\n      swap4\n      swap3\n      swap2\n      swap1\n      tag_10\n      jump\t// in\n    tag_9:\n      mload(0x40)\n      dup1\n      swap2\n      sub\n      swap1\n      return\n        /* \"src/UniswapV3Quoter.sol\":778:1421  function uniswapV3SwapCallback(... */\n    tag_4:\n      tag_11\n      0x04\n      dup1\n      calldatasize\n      sub\n      dup2\n      add\n      swap1\n      tag_12\n      swap2\n      swap1\n      tag_13\n      jump\t// in\n    tag_12:\n      tag_14\n      jump\t// in\n    tag_11:\n      stop\n        /* \"src/UniswapV3Quoter.sol\":250:772  function quote(QuoteParams memory params)... */\n    tag_8:\n        /* \"src/UniswapV3Quoter.sol\":337:354  uint256 amountOut */\n      0x00\n        /* \"src/UniswapV3Quoter.sol\":368:393  uint160 sqrtPriceX96After */\n      dup1\n        /* \"src/UniswapV3Quoter.sol\":407:422  int24 tickAfter */\n      0x00\n        /* \"src/UniswapV3Quoter.sol\":478:484  params */\n      dup4\n        /* \"src/UniswapV3Quoter.sol\":478:489  params.pool */\n      0x00\n      add\n      mload\n        /* \"src/UniswapV3Quoter.sol\":463:495  IUniswapV3Pool(params.pool).swap */\n      0xffffffffffffffffffffffffffffffffffffffff\n      and\n      0x80c2c6ef\n        /* \"src/UniswapV3Quoter.sol\":521:525  this */\n      address\n        /* \"src/UniswapV3Quoter.sol\":544:550  params */\n      dup7\n        /* \"src/UniswapV3Quoter.sol\":544:561  params.zeroForOne */\n      0x40\n      add\n      mload\n        /* \"src/UniswapV3Quoter.sol\":579:585  params */\n      dup8\n        /* \"src/UniswapV3Quoter.sol\":579:594  params.amountIn */\n      0x20\n      add\n      mload\n        /* \"src/UniswapV3Quoter.sol\":623:629  params */\n      dup9\n        /* \"src/UniswapV3Quoter.sol\":623:634  params.pool */\n      0x00\n      add\n      mload\n        /* \"src/UniswapV3Quoter.sol\":612:635  abi.encode(params.pool) */\n      add(0x20, mload(0x40))\n      tag_16\n      swap2\n      swap1\n      tag_17\n      jump\t// in\n    tag_16:\n      mload(0x40)\n      0x20\n      dup2\n      dup4\n      sub\n      sub\n      dup2\n      mstore\n      swap1\n      0x40\n      mstore\n        /* \"src/UniswapV3Quoter.sol\":463:649  IUniswapV3Pool(params.pool).swap(... */\n      mload(0x40)\n      dup6\n      0xffffffff\n      and\n      0xe0\n      shl\n      dup2\n      mstore\n      0x04\n      add\n      tag_18\n      swap5\n      swap4\n      swap3\n      swap2\n      swap1\n      tag_19\n      jump\t// in\n    tag_18:\n      0x40\n      dup1\n      mload\n      dup1\n      dup4\n      sub\n      dup2\n      0x00\n      dup8\n      gas\n      call\n      swap3\n      pop\n      pop\n      pop\n      dup1\n      iszero\n      tag_20\n      jumpi\n      pop\n      mload(0x40)\n      returndatasize\n      not(0x1f)\n      0x1f\n      dup3\n      add\n      and\n      dup3\n      add\n      dup1\n      0x40\n      mstore\n      pop\n      dup2\n      add\n      swap1\n      tag_21\n      swap2\n      swap1\n      tag_22\n      jump\t// in\n    tag_21:\n      0x01\n    tag_20:\n        /* \"src/UniswapV3Quoter.sol\":447:766  try... */\n      tag_23\n      jumpi\n      returndatasize\n      dup1\n      0x00\n      dup2\n      eq\n      tag_28\n      jumpi\n      mload(0x40)\n      swap2\n      pop\n      and(add(returndatasize, 0x3f), not(0x1f))\n      dup3\n      add\n      0x40\n      mstore\n      returndatasize\n      dup3\n      mstore\n      returndatasize\n      0x00\n      0x20\n      dup5\n      add\n      returndatacopy\n      jump(tag_27)\n    tag_28:\n      0x60\n      swap2\n      pop\n    tag_27:\n      pop\n        /* \"src/UniswapV3Quoter.sol\":721:727  reason */\n      dup1\n        /* \"src/UniswapV3Quoter.sol\":710:755  abi.decode(reason, (uint256, uint160, int24)) */\n      dup1\n      0x20\n      add\n      swap1\n      mload\n      dup2\n      add\n      swap1\n      tag_29\n      swap2\n      swap1\n      tag_30\n      jump\t// in\n    tag_29:\n        /* \"src/UniswapV3Quoter.sol\":703:755  return abi.decode(reason, (uint256, uint160, int24)) */\n      swap4\n      pop\n      swap4\n      pop\n      swap4\n      pop\n      pop\n      jump(tag_15)\n        /* \"src/UniswapV3Quoter.sol\":447:766  try... */\n    tag_23:\n      pop\n      pop\n        /* \"src/UniswapV3Quoter.sol\":250:772  function quote(QuoteParams memory params)... */\n    tag_15:\n      swap2\n      swap4\n      swap1\n      swap3\n      pop\n      jump\t// out\n        /* \"src/UniswapV3Quoter.sol\":778:1421  function uniswapV3SwapCallback(... */\n    tag_14:\n        /* \"src/UniswapV3Quoter.sol\":924:936  address pool */\n      0x00\n        /* \"src/UniswapV3Quoter.sol\":950:954  data */\n      dup2\n        /* \"src/UniswapV3Quoter.sol\":939:966  abi.decode(data, (address)) */\n      dup1\n      0x20\n      add\n      swap1\n      mload\n      dup2\n      add\n      swap1\n      tag_33\n      swap2\n      swap1\n      tag_34\n      jump\t// in\n    tag_33:\n        /* \"src/UniswapV3Quoter.sol\":924:966  address pool = abi.decode(data, (address)) */\n      swap1\n      pop\n        /* \"src/UniswapV3Quoter.sol\":977:994  uint256 amountOut */\n      0x00\n        /* \"src/UniswapV3Quoter.sol\":1012:1013  0 */\n      dup1\n        /* \"src/UniswapV3Quoter.sol\":997:1009  amount0Delta */\n      dup6\n        /* \"src/UniswapV3Quoter.sol\":997:1013  amount0Delta > 0 */\n      sgt\n        /* \"src/UniswapV3Quoter.sol\":997:1087  amount0Delta > 0... */\n      tag_35\n      jumpi\n        /* \"src/UniswapV3Quoter.sol\":1074:1086  amount0Delta */\n      dup5\n        /* \"src/UniswapV3Quoter.sol\":1073:1086  -amount0Delta */\n      tag_36\n      swap1\n      tag_37\n      jump\t// in\n    tag_36:\n        /* \"src/UniswapV3Quoter.sol\":997:1087  amount0Delta > 0... */\n      jump(tag_38)\n    tag_35:\n        /* \"src/UniswapV3Quoter.sol\":1037:1049  amount1Delta */\n      dup4\n        /* \"src/UniswapV3Quoter.sol\":1036:1049  -amount1Delta */\n      tag_39\n      swap1\n      tag_37\n      jump\t// in\n    tag_39:\n        /* \"src/UniswapV3Quoter.sol\":997:1087  amount0Delta > 0... */\n    tag_38:\n        /* \"src/UniswapV3Quoter.sol\":977:1087  uint256 amountOut = amount0Delta > 0... */\n      swap1\n      pop\n        /* \"src/UniswapV3Quoter.sol\":1099:1124  uint160 sqrtPriceX96After */\n      0x00\n        /* \"src/UniswapV3Quoter.sol\":1126:1141  int24 tickAfter */\n      dup1\n        /* \"src/UniswapV3Quoter.sol\":1160:1164  pool */\n      dup4\n        /* \"src/UniswapV3Quoter.sol\":1145:1184  IUniswapV3Pool(pool)... */\n      0xffffffffffffffffffffffffffffffffffffffff\n      and\n      0x3850c7bd\n        /* \"src/UniswapV3Quoter.sol\":1145:1186  IUniswapV3Pool(pool)... */\n      mload(0x40)\n      dup2\n      0xffffffff\n      and\n      0xe0\n      shl\n      dup2\n      mstore\n      0x04\n      add\n      0x40\n      dup1\n      mload\n      dup1\n      dup4\n      sub\n      dup2\n      dup7\n      gas\n      staticcall\n      iszero\n      dup1\n      iszero\n      tag_41\n      jumpi\n      returndatasize\n      0x00\n      dup1\n      returndatacopy\n      revert(0x00, returndatasize)\n    tag_41:\n      pop\n      pop\n      pop\n      pop\n      mload(0x40)\n      returndatasize\n      not(0x1f)\n      0x1f\n      dup3\n      add\n      and\n      dup3\n      add\n      dup1\n      0x40\n      mstore\n      pop\n      dup2\n      add\n      swap1\n      tag_42\n      swap2\n      swap1\n      tag_43\n      jump\t// in\n    tag_42:\n        /* \"src/UniswapV3Quoter.sol\":1098:1186  (uint160 sqrtPriceX96After, int24 tickAfter) = IUniswapV3Pool(pool)... */\n      swap2\n      pop\n      swap2\n      pop\n        /* \"src/UniswapV3Quoter.sol\":1237:1241  0x40 */\n      0x40\n        /* \"src/UniswapV3Quoter.sol\":1231:1242  mload(0x40) */\n      mload\n        /* \"src/UniswapV3Quoter.sol\":1267:1276  amountOut */\n      dup4\n        /* \"src/UniswapV3Quoter.sol\":1262:1265  ptr */\n      dup2\n        /* \"src/UniswapV3Quoter.sol\":1255:1277  mstore(ptr, amountOut) */\n      mstore\n        /* \"src/UniswapV3Quoter.sol\":1313:1330  sqrtPriceX96After */\n      dup3\n        /* \"src/UniswapV3Quoter.sol\":1306:1310  0x20 */\n      0x20\n        /* \"src/UniswapV3Quoter.sol\":1301:1304  ptr */\n      dup3\n        /* \"src/UniswapV3Quoter.sol\":1297:1311  add(ptr, 0x20) */\n      add\n        /* \"src/UniswapV3Quoter.sol\":1290:1331  mstore(add(ptr, 0x20), sqrtPriceX96After) */\n      mstore\n        /* \"src/UniswapV3Quoter.sol\":1367:1376  tickAfter */\n      dup2\n        /* \"src/UniswapV3Quoter.sol\":1360:1364  0x40 */\n      0x40\n        /* \"src/UniswapV3Quoter.sol\":1355:1358  ptr */\n      dup3\n        /* \"src/UniswapV3Quoter.sol\":1351:1365  add(ptr, 0x40) */\n      add\n        /* \"src/UniswapV3Quoter.sol\":1344:1377  mstore(add(ptr, 0x40), tickAfter) */\n      mstore\n        /* \"src/UniswapV3Quoter.sol\":1402:1404  96 */\n      0x60\n        /* \"src/UniswapV3Quoter.sol\":1397:1400  ptr */\n      dup2\n        /* \"src/UniswapV3Quoter.sol\":1390:1405  revert(ptr, 96) */\n      revert\n        /* \"#utility.yul\":7:82   */\n    tag_44:\n        /* \"#utility.yul\":40:46   */\n      0x00\n        /* \"#utility.yul\":73:75   */\n      0x40\n        /* \"#utility.yul\":67:76   */\n      mload\n        /* \"#utility.yul\":57:76   */\n      swap1\n      pop\n        /* \"#utility.yul\":7:82   */\n      swap1\n      jump\t// out\n        /* \"#utility.yul\":88:205   */\n    tag_45:\n        /* \"#utility.yul\":197:198   */\n      0x00\n        /* \"#utility.yul\":194:195   */\n      dup1\n        /* \"#utility.yul\":187:199   */\n      revert\n        /* \"#utility.yul\":211:328   */\n    tag_46:\n        /* \"#utility.yul\":320:321   */\n      0x00\n        /* \"#utility.yul\":317:318   */\n      dup1\n        /* \"#utility.yul\":310:322   */\n      revert\n        /* \"#utility.yul\":334:451   */\n    tag_47:\n        /* \"#utility.yul\":443:444   */\n      0x00\n        /* \"#utility.yul\":440:441   */\n      dup1\n        /* \"#utility.yul\":433:445   */\n      revert\n        /* \"#utility.yul\":457:559   */\n    tag_48:\n        /* \"#utility.yul\":498:504   */\n      0x00\n        /* \"#utility.yul\":549:551   */\n      0x1f\n        /* \"#utility.yul\":545:552   */\n      not\n        /* \"#utility.yul\":540:542   */\n      0x1f\n        /* \"#utility.yul\":533:538   */\n      dup4\n        /* \"#utility.yul\":529:543   */\n      add\n        /* \"#utility.yul\":525:553   */\n      and\n        /* \"#utility.yul\":515:553   */\n      swap1\n      pop\n        /* \"#utility.yul\":457:559   */\n      swap2\n      swap1\n      pop\n      jump\t// out\n        /* \"#utility.yul\":565:745   */\n    tag_49:\n        /* \"#utility.yul\":613:690   */\n      0x4e487b7100000000000000000000000000000000000000000000000000000000\n        /* \"#utility.yul\":610:611   */\n      0x00\n        /* \"#utility.yul\":603:691   */\n      mstore\n        /* \"#utility.yul\":710:714   */\n      0x41\n        /* \"#utility.yul\":707:708   */\n      0x04\n        /* \"#utility.yul\":700:715   */\n      mstore\n        /* \"#utility.yul\":734:738   */\n      0x24\n        /* \"#utility.yul\":731:732   */\n      0x00\n        /* \"#utility.yul\":724:739   */\n      revert\n        /* \"#utility.yul\":751:1032   */\n    tag_50:\n        /* \"#utility.yul\":834:861   */\n      tag_101\n        /* \"#utility.yul\":856:860   */\n      dup3\n        /* \"#utility.yul\":834:861   */\n      tag_48\n      jump\t// in\n    tag_101:\n        /* \"#utility.yul\":826:832   */\n      dup2\n        /* \"#utility.yul\":822:862   */\n      add\n        /* \"#utility.yul\":964:970   */\n      dup2\n        /* \"#utility.yul\":952:962   */\n      dup2\n        /* \"#utility.yul\":949:971   */\n      lt\n        /* \"#utility.yul\":928:946   */\n      0xffffffffffffffff\n        /* \"#utility.yul\":916:926   */\n      dup3\n        /* \"#utility.yul\":913:947   */\n      gt\n        /* \"#utility.yul\":910:972   */\n      or\n        /* \"#utility.yul\":907:995   */\n      iszero\n      tag_102\n      jumpi\n        /* \"#utility.yul\":975:993   */\n      tag_103\n      tag_49\n      jump\t// in\n    tag_103:\n        /* \"#utility.yul\":907:995   */\n    tag_102:\n        /* \"#utility.yul\":1015:1025   */\n      dup1\n        /* \"#utility.yul\":1011:1013   */\n      0x40\n        /* \"#utility.yul\":1004:1026   */\n      mstore\n        /* \"#utility.yul\":794:1032   */\n      pop\n        /* \"#utility.yul\":751:1032   */\n      pop\n      pop\n      jump\t// out\n        /* \"#utility.yul\":1038:1167   */\n    tag_51:\n        /* \"#utility.yul\":1072:1078   */\n      0x00\n        /* \"#utility.yul\":1099:1119   */\n      tag_105\n      tag_44\n      jump\t// in\n    tag_105:\n        /* \"#utility.yul\":1089:1119   */\n      swap1\n      pop\n        /* \"#utility.yul\":1128:1161   */\n      tag_106\n        /* \"#utility.yul\":1156:1160   */\n      dup3\n        /* \"#utility.yul\":1148:1154   */\n      dup3\n        /* \"#utility.yul\":1128:1161   */\n      tag_50\n      jump\t// in\n    tag_106:\n        /* \"#utility.yul\":1038:1167   */\n      swap2\n      swap1\n      pop\n      jump\t// out\n        /* \"#utility.yul\":1296:1422   */\n    tag_53:\n        /* \"#utility.yul\":1333:1340   */\n      0x00\n        /* \"#utility.yul\":1373:1415   */\n      0xffffffffffffffffffffffffffffffffffffffff\n        /* \"#utility.yul\":1366:1371   */\n      dup3\n        /* \"#utility.yul\":1362:1416   */\n      and\n        /* \"#utility.yul\":1351:1416   */\n      swap1\n      pop\n        /* \"#utility.yul\":1296:1422   */\n      swap2\n      swap1\n      pop\n      jump\t// out\n        /* \"#utility.yul\":1428:1524   */\n    tag_54:\n        /* \"#utility.yul\":1465:1472   */\n      0x00\n        /* \"#utility.yul\":1494:1518   */\n      tag_110\n        /* \"#utility.yul\":1512:1517   */\n      dup3\n        /* \"#utility.yul\":1494:1518   */\n      tag_53\n      jump\t// in\n    tag_110:\n        /* \"#utility.yul\":1483:1518   */\n      swap1\n      pop\n        /* \"#utility.yul\":1428:1524   */\n      swap2\n      swap1\n      pop\n      jump\t// out\n        /* \"#utility.yul\":1530:1652   */\n    tag_55:\n        /* \"#utility.yul\":1603:1627   */\n      tag_112\n        /* \"#utility.yul\":1621:1626   */\n      dup2\n        /* \"#utility.yul\":1603:1627   */\n      tag_54\n      jump\t// in\n    tag_112:\n        /* \"#utility.yul\":1596:1601   */\n      dup2\n        /* \"#utility.yul\":1593:1628   */\n      eq\n        /* \"#utility.yul\":1583:1646   */\n      tag_113\n      jumpi\n        /* \"#utility.yul\":1642:1643   */\n      0x00\n        /* \"#utility.yul\":1639:1640   */\n      dup1\n        /* \"#utility.yul\":1632:1644   */\n      revert\n        /* \"#utility.yul\":1583:1646   */\n    tag_113:\n        /* \"#utility.yul\":1530:1652   */\n      pop\n      jump\t// out\n        /* \"#utility.yul\":1658:1797   */\n    tag_56:\n        /* \"#utility.yul\":1704:1709   */\n      0x00\n        /* \"#utility.yul\":1742:1748   */\n      dup2\n        /* \"#utility.yul\":1729:1749   */\n      calldataload\n        /* \"#utility.yul\":1720:1749   */\n      swap1\n      pop\n        /* \"#utility.yul\":1758:1791   */\n      tag_115\n        /* \"#utility.yul\":1785:1790   */\n      dup2\n        /* \"#utility.yul\":1758:1791   */\n      tag_55\n      jump\t// in\n    tag_115:\n        /* \"#utility.yul\":1658:1797   */\n      swap3\n      swap2\n      pop\n      pop\n      jump\t// out\n        /* \"#utility.yul\":1803:1880   */\n    tag_57:\n        /* \"#utility.yul\":1840:1847   */\n      0x00\n        /* \"#utility.yul\":1869:1874   */\n      dup2\n        /* \"#utility.yul\":1858:1874   */\n      swap1\n      pop\n        /* \"#utility.yul\":1803:1880   */\n      swap2\n      swap1\n      pop\n      jump\t// out\n        /* \"#utility.yul\":1886:2008   */\n    tag_58:\n        /* \"#utility.yul\":1959:1983   */\n      tag_118\n        /* \"#utility.yul\":1977:1982   */\n      dup2\n        /* \"#utility.yul\":1959:1983   */\n      tag_57\n      jump\t// in\n    tag_118:\n        /* \"#utility.yul\":1952:1957   */\n      dup2\n        /* \"#utility.yul\":1949:1984   */\n      eq\n        /* \"#utility.yul\":1939:2002   */\n      tag_119\n      jumpi\n        /* \"#utility.yul\":1998:1999   */\n      0x00\n        /* \"#utility.yul\":1995:1996   */\n      dup1\n        /* \"#utility.yul\":1988:2000   */\n      revert\n        /* \"#utility.yul\":1939:2002   */\n    tag_119:\n        /* \"#utility.yul\":1886:2008   */\n      pop\n      jump\t// out\n        /* \"#utility.yul\":2014:2153   */\n    tag_59:\n        /* \"#utility.yul\":2060:2065   */\n      0x00\n        /* \"#utility.yul\":2098:2104   */\n      dup2\n        /* \"#utility.yul\":2085:2105   */\n      calldataload\n        /* \"#utility.yul\":2076:2105   */\n      swap1\n      pop\n        /* \"#utility.yul\":2114:2147   */\n      tag_121\n        /* \"#utility.yul\":2141:2146   */\n      dup2\n        /* \"#utility.yul\":2114:2147   */\n      tag_58\n      jump\t// in\n    tag_121:\n        /* \"#utility.yul\":2014:2153   */\n      swap3\n      swap2\n      pop\n      pop\n      jump\t// out\n        /* \"#utility.yul\":2159:2249   */\n    tag_60:\n        /* \"#utility.yul\":2193:2200   */\n      0x00\n        /* \"#utility.yul\":2236:2241   */\n      dup2\n        /* \"#utility.yul\":2229:2242   */\n      iszero\n        /* \"#utility.yul\":2222:2243   */\n      iszero\n        /* \"#utility.yul\":2211:2243   */\n      swap1\n      pop\n        /* \"#utility.yul\":2159:2249   */\n      swap2\n      swap1\n      pop\n      jump\t// out\n        /* \"#utility.yul\":2255:2371   */\n    tag_61:\n        /* \"#utility.yul\":2325:2346   */\n      tag_124\n        /* \"#utility.yul\":2340:2345   */\n      dup2\n        /* \"#utility.yul\":2325:2346   */\n      tag_60\n      jump\t// in\n    tag_124:\n        /* \"#utility.yul\":2318:2323   */\n      dup2\n        /* \"#utility.yul\":2315:2347   */\n      eq\n        /* \"#utility.yul\":2305:2365   */\n      tag_125\n      jumpi\n        /* \"#utility.yul\":2361:2362   */\n      0x00\n        /* \"#utility.yul\":2358:2359   */\n      dup1\n        /* \"#utility.yul\":2351:2363   */\n      revert\n        /* \"#utility.yul\":2305:2365   */\n    tag_125:\n        /* \"#utility.yul\":2255:2371   */\n      pop\n      jump\t// out\n        /* \"#utility.yul\":2377:2510   */\n    tag_62:\n        /* \"#utility.yul\":2420:2425   */\n      0x00\n        /* \"#utility.yul\":2458:2464   */\n      dup2\n        /* \"#utility.yul\":2445:2465   */\n      calldataload\n        /* \"#utility.yul\":2436:2465   */\n      swap1\n      pop\n        /* \"#utility.yul\":2474:2504   */\n      tag_127\n        /* \"#utility.yul\":2498:2503   */\n      dup2\n        /* \"#utility.yul\":2474:2504   */\n      tag_61\n      jump\t// in\n    tag_127:\n        /* \"#utility.yul\":2377:2510   */\n      swap3\n      swap2\n      pop\n      pop\n      jump\t// out\n        /* \"#utility.yul\":2558:3301   */\n    tag_63:\n        /* \"#utility.yul\":2633:2638   */\n      0x00\n        /* \"#utility.yul\":2677:2681   */\n      0x60\n        /* \"#utility.yul\":2665:2674   */\n      dup3\n        /* \"#utility.yul\":2660:2663   */\n      dup5\n        /* \"#utility.yul\":2656:2675   */\n      sub\n        /* \"#utility.yul\":2652:2682   */\n      slt\n        /* \"#utility.yul\":2649:2766   */\n      iszero\n      tag_129\n      jumpi\n        /* \"#utility.yul\":2685:2764   */\n      tag_130\n      tag_47\n      jump\t// in\n    tag_130:\n        /* \"#utility.yul\":2649:2766   */\n    tag_129:\n        /* \"#utility.yul\":2784:2805   */\n      tag_131\n        /* \"#utility.yul\":2800:2804   */\n      0x60\n        /* \"#utility.yul\":2784:2805   */\n      tag_51\n      jump\t// in\n    tag_131:\n        /* \"#utility.yul\":2775:2805   */\n      swap1\n      pop\n        /* \"#utility.yul\":2864:2865   */\n      0x00\n        /* \"#utility.yul\":2904:2953   */\n      tag_132\n        /* \"#utility.yul\":2949:2952   */\n      dup5\n        /* \"#utility.yul\":2940:2946   */\n      dup3\n        /* \"#utility.yul\":2929:2938   */\n      dup6\n        /* \"#utility.yul\":2925:2947   */\n      add\n        /* \"#utility.yul\":2904:2953   */\n      tag_56\n      jump\t// in\n    tag_132:\n        /* \"#utility.yul\":2897:2901   */\n      0x00\n        /* \"#utility.yul\":2890:2895   */\n      dup4\n        /* \"#utility.yul\":2886:2902   */\n      add\n        /* \"#utility.yul\":2879:2954   */\n      mstore\n        /* \"#utility.yul\":2815:2965   */\n      pop\n        /* \"#utility.yul\":3028:3030   */\n      0x20\n        /* \"#utility.yul\":3069:3118   */\n      tag_133\n        /* \"#utility.yul\":3114:3117   */\n      dup5\n        /* \"#utility.yul\":3105:3111   */\n      dup3\n        /* \"#utility.yul\":3094:3103   */\n      dup6\n        /* \"#utility.yul\":3090:3112   */\n      add\n        /* \"#utility.yul\":3069:3118   */\n      tag_59\n      jump\t// in\n    tag_133:\n        /* \"#utility.yul\":3062:3066   */\n      0x20\n        /* \"#utility.yul\":3055:3060   */\n      dup4\n        /* \"#utility.yul\":3051:3067   */\n      add\n        /* \"#utility.yul\":3044:3119   */\n      mstore\n        /* \"#utility.yul\":2975:3130   */\n      pop\n        /* \"#utility.yul\":3195:3197   */\n      0x40\n        /* \"#utility.yul\":3236:3282   */\n      tag_134\n        /* \"#utility.yul\":3278:3281   */\n      dup5\n        /* \"#utility.yul\":3269:3275   */\n      dup3\n        /* \"#utility.yul\":3258:3267   */\n      dup6\n        /* \"#utility.yul\":3254:3276   */\n      add\n        /* \"#utility.yul\":3236:3282   */\n      tag_62\n      jump\t// in\n    tag_134:\n        /* \"#utility.yul\":3229:3233   */\n      0x40\n        /* \"#utility.yul\":3222:3227   */\n      dup4\n        /* \"#utility.yul\":3218:3234   */\n      add\n        /* \"#utility.yul\":3211:3283   */\n      mstore\n        /* \"#utility.yul\":3140:3294   */\n      pop\n        /* \"#utility.yul\":2558:3301   */\n      swap3\n      swap2\n      pop\n      pop\n      jump\t// out\n        /* \"#utility.yul\":3307:3688   */\n    tag_7:\n        /* \"#utility.yul\":3392:3398   */\n      0x00\n        /* \"#utility.yul\":3441:3443   */\n      0x60\n        /* \"#utility.yul\":3429:3438   */\n      dup3\n        /* \"#utility.yul\":3420:3427   */\n      dup5\n        /* \"#utility.yul\":3416:3439   */\n      sub\n        /* \"#utility.yul\":3412:3444   */\n      slt\n        /* \"#utility.yul\":3409:3528   */\n      iszero\n      tag_136\n      jumpi\n        /* \"#utility.yul\":3447:3526   */\n      tag_137\n      tag_45\n      jump\t// in\n    tag_137:\n        /* \"#utility.yul\":3409:3528   */\n    tag_136:\n        /* \"#utility.yul\":3567:3568   */\n      0x00\n        /* \"#utility.yul\":3592:3671   */\n      tag_138\n        /* \"#utility.yul\":3663:3670   */\n      dup5\n        /* \"#utility.yul\":3654:3660   */\n      dup3\n        /* \"#utility.yul\":3643:3652   */\n      dup6\n        /* \"#utility.yul\":3639:3661   */\n      add\n        /* \"#utility.yul\":3592:3671   */\n      tag_63\n      jump\t// in\n    tag_138:\n        /* \"#utility.yul\":3582:3671   */\n      swap2\n      pop\n        /* \"#utility.yul\":3538:3681   */\n      pop\n        /* \"#utility.yul\":3307:3688   */\n      swap3\n      swap2\n      pop\n      pop\n      jump\t// out\n        /* \"#utility.yul\":3694:3812   */\n    tag_64:\n        /* \"#utility.yul\":3781:3805   */\n      tag_140\n        /* \"#utility.yul\":3799:3804   */\n      dup2\n        /* \"#utility.yul\":3781:3805   */\n      tag_57\n      jump\t// in\n    tag_140:\n        /* \"#utility.yul\":3776:3779   */\n      dup3\n        /* \"#utility.yul\":3769:3806   */\n      mstore\n        /* \"#utility.yul\":3694:3812   */\n      pop\n      pop\n      jump\t// out\n        /* \"#utility.yul\":3818:3936   */\n    tag_65:\n        /* \"#utility.yul\":3905:3929   */\n      tag_142\n        /* \"#utility.yul\":3923:3928   */\n      dup2\n        /* \"#utility.yul\":3905:3929   */\n      tag_53\n      jump\t// in\n    tag_142:\n        /* \"#utility.yul\":3900:3903   */\n      dup3\n        /* \"#utility.yul\":3893:3930   */\n      mstore\n        /* \"#utility.yul\":3818:3936   */\n      pop\n      pop\n      jump\t// out\n        /* \"#utility.yul\":3942:4032   */\n    tag_66:\n        /* \"#utility.yul\":3977:3984   */\n      0x00\n        /* \"#utility.yul\":4020:4025   */\n      dup2\n        /* \"#utility.yul\":4017:4018   */\n      0x02\n        /* \"#utility.yul\":4006:4026   */\n      signextend\n        /* \"#utility.yul\":3995:4026   */\n      swap1\n      pop\n        /* \"#utility.yul\":3942:4032   */\n      swap2\n      swap1\n      pop\n      jump\t// out\n        /* \"#utility.yul\":4038:4150   */\n    tag_67:\n        /* \"#utility.yul\":4121:4143   */\n      tag_145\n        /* \"#utility.yul\":4137:4142   */\n      dup2\n        /* \"#utility.yul\":4121:4143   */\n      tag_66\n      jump\t// in\n    tag_145:\n        /* \"#utility.yul\":4116:4119   */\n      dup3\n        /* \"#utility.yul\":4109:4144   */\n      mstore\n        /* \"#utility.yul\":4038:4150   */\n      pop\n      pop\n      jump\t// out\n        /* \"#utility.yul\":4156:4590   */\n    tag_10:\n        /* \"#utility.yul\":4301:4305   */\n      0x00\n        /* \"#utility.yul\":4339:4341   */\n      0x60\n        /* \"#utility.yul\":4328:4337   */\n      dup3\n        /* \"#utility.yul\":4324:4342   */\n      add\n        /* \"#utility.yul\":4316:4342   */\n      swap1\n      pop\n        /* \"#utility.yul\":4352:4423   */\n      tag_147\n        /* \"#utility.yul\":4420:4421   */\n      0x00\n        /* \"#utility.yul\":4409:4418   */\n      dup4\n        /* \"#utility.yul\":4405:4422   */\n      add\n        /* \"#utility.yul\":4396:4402   */\n      dup7\n        /* \"#utility.yul\":4352:4423   */\n      tag_64\n      jump\t// in\n    tag_147:\n        /* \"#utility.yul\":4433:4505   */\n      tag_148\n        /* \"#utility.yul\":4501:4503   */\n      0x20\n        /* \"#utility.yul\":4490:4499   */\n      dup4\n        /* \"#utility.yul\":4486:4504   */\n      add\n        /* \"#utility.yul\":4477:4483   */\n      dup6\n        /* \"#utility.yul\":4433:4505   */\n      tag_65\n      jump\t// in\n    tag_148:\n        /* \"#utility.yul\":4515:4583   */\n      tag_149\n        /* \"#utility.yul\":4579:4581   */\n      0x40\n        /* \"#utility.yul\":4568:4577   */\n      dup4\n        /* \"#utility.yul\":4564:4582   */\n      add\n        /* \"#utility.yul\":4555:4561   */\n      dup5\n        /* \"#utility.yul\":4515:4583   */\n      tag_67\n      jump\t// in\n    tag_149:\n        /* \"#utility.yul\":4156:4590   */\n      swap5\n      swap4\n      pop\n      pop\n      pop\n      pop\n      jump\t// out\n        /* \"#utility.yul\":4596:4672   */\n    tag_68:\n        /* \"#utility.yul\":4632:4639   */\n      0x00\n        /* \"#utility.yul\":4661:4666   */\n      dup2\n        /* \"#utility.yul\":4650:4666   */\n      swap1\n      pop\n        /* \"#utility.yul\":4596:4672   */\n      swap2\n      swap1\n      pop\n      jump\t// out\n        /* \"#utility.yul\":4678:4798   */\n    tag_69:\n        /* \"#utility.yul\":4750:4773   */\n      tag_152\n        /* \"#utility.yul\":4767:4772   */\n      dup2\n        /* \"#utility.yul\":4750:4773   */\n      tag_68\n      jump\t// in\n    tag_152:\n        /* \"#utility.yul\":4743:4748   */\n      dup2\n        /* \"#utility.yul\":4740:4774   */\n      eq\n        /* \"#utility.yul\":4730:4792   */\n      tag_153\n      jumpi\n        /* \"#utility.yul\":4788:4789   */\n      0x00\n        /* \"#utility.yul\":4785:4786   */\n      dup1\n        /* \"#utility.yul\":4778:4790   */\n      revert\n        /* \"#utility.yul\":4730:4792   */\n    tag_153:\n        /* \"#utility.yul\":4678:4798   */\n      pop\n      jump\t// out\n        /* \"#utility.yul\":4804:4941   */\n    tag_70:\n        /* \"#utility.yul\":4849:4854   */\n      0x00\n        /* \"#utility.yul\":4887:4893   */\n      dup2\n        /* \"#utility.yul\":4874:4894   */\n      calldataload\n        /* \"#utility.yul\":4865:4894   */\n      swap1\n      pop\n        /* \"#utility.yul\":4903:4935   */\n      tag_155\n        /* \"#utility.yul\":4929:4934   */\n      dup2\n        /* \"#utility.yul\":4903:4935   */\n      tag_69\n      jump\t// in\n    tag_155:\n        /* \"#utility.yul\":4804:4941   */\n      swap3\n      swap2\n      pop\n      pop\n      jump\t// out\n        /* \"#utility.yul\":4947:5064   */\n    tag_71:\n        /* \"#utility.yul\":5056:5057   */\n      0x00\n        /* \"#utility.yul\":5053:5054   */\n      dup1\n        /* \"#utility.yul\":5046:5058   */\n      revert\n        /* \"#utility.yul\":5070:5187   */\n    tag_72:\n        /* \"#utility.yul\":5179:5180   */\n      0x00\n        /* \"#utility.yul\":5176:5177   */\n      dup1\n        /* \"#utility.yul\":5169:5181   */\n      revert\n        /* \"#utility.yul\":5193:5500   */\n    tag_73:\n        /* \"#utility.yul\":5254:5258   */\n      0x00\n        /* \"#utility.yul\":5344:5362   */\n      0xffffffffffffffff\n        /* \"#utility.yul\":5336:5342   */\n      dup3\n        /* \"#utility.yul\":5333:5363   */\n      gt\n        /* \"#utility.yul\":5330:5386   */\n      iszero\n      tag_159\n      jumpi\n        /* \"#utility.yul\":5366:5384   */\n      tag_160\n      tag_49\n      jump\t// in\n    tag_160:\n        /* \"#utility.yul\":5330:5386   */\n    tag_159:\n        /* \"#utility.yul\":5404:5433   */\n      tag_161\n        /* \"#utility.yul\":5426:5432   */\n      dup3\n        /* \"#utility.yul\":5404:5433   */\n      tag_48\n      jump\t// in\n    tag_161:\n        /* \"#utility.yul\":5396:5433   */\n      swap1\n      pop\n        /* \"#utility.yul\":5488:5492   */\n      0x20\n        /* \"#utility.yul\":5482:5486   */\n      dup2\n        /* \"#utility.yul\":5478:5493   */\n      add\n        /* \"#utility.yul\":5470:5493   */\n      swap1\n      pop\n        /* \"#utility.yul\":5193:5500   */\n      swap2\n      swap1\n      pop\n      jump\t// out\n        /* \"#utility.yul\":5506:5652   */\n    tag_74:\n        /* \"#utility.yul\":5603:5609   */\n      dup3\n        /* \"#utility.yul\":5598:5601   */\n      dup2\n        /* \"#utility.yul\":5593:5596   */\n      dup4\n        /* \"#utility.yul\":5580:5610   */\n      calldatacopy\n        /* \"#utility.yul\":5644:5645   */\n      0x00\n        /* \"#utility.yul\":5635:5641   */\n      dup4\n        /* \"#utility.yul\":5630:5633   */\n      dup4\n        /* \"#utility.yul\":5626:5642   */\n      add\n        /* \"#utility.yul\":5619:5646   */\n      mstore\n        /* \"#utility.yul\":5506:5652   */\n      pop\n      pop\n      pop\n      jump\t// out\n        /* \"#utility.yul\":5658:6081   */\n    tag_75:\n        /* \"#utility.yul\":5735:5740   */\n      0x00\n        /* \"#utility.yul\":5760:5825   */\n      tag_164\n        /* \"#utility.yul\":5776:5824   */\n      tag_165\n        /* \"#utility.yul\":5817:5823   */\n      dup5\n        /* \"#utility.yul\":5776:5824   */\n      tag_73\n      jump\t// in\n    tag_165:\n        /* \"#utility.yul\":5760:5825   */\n      tag_51\n      jump\t// in\n    tag_164:\n        /* \"#utility.yul\":5751:5825   */\n      swap1\n      pop\n        /* \"#utility.yul\":5848:5854   */\n      dup3\n        /* \"#utility.yul\":5841:5846   */\n      dup2\n        /* \"#utility.yul\":5834:5855   */\n      mstore\n        /* \"#utility.yul\":5886:5890   */\n      0x20\n        /* \"#utility.yul\":5879:5884   */\n      dup2\n        /* \"#utility.yul\":5875:5891   */\n      add\n        /* \"#utility.yul\":5924:5927   */\n      dup5\n        /* \"#utility.yul\":5915:5921   */\n      dup5\n        /* \"#utility.yul\":5910:5913   */\n      dup5\n        /* \"#utility.yul\":5906:5922   */\n      add\n        /* \"#utility.yul\":5903:5928   */\n      gt\n        /* \"#utility.yul\":5900:6012   */\n      iszero\n      tag_166\n      jumpi\n        /* \"#utility.yul\":5931:6010   */\n      tag_167\n      tag_72\n      jump\t// in\n    tag_167:\n        /* \"#utility.yul\":5900:6012   */\n    tag_166:\n        /* \"#utility.yul\":6021:6075   */\n      tag_168\n        /* \"#utility.yul\":6068:6074   */\n      dup5\n        /* \"#utility.yul\":6063:6066   */\n      dup3\n        /* \"#utility.yul\":6058:6061   */\n      dup6\n        /* \"#utility.yul\":6021:6075   */\n      tag_74\n      jump\t// in\n    tag_168:\n        /* \"#utility.yul\":5741:6081   */\n      pop\n        /* \"#utility.yul\":5658:6081   */\n      swap4\n      swap3\n      pop\n      pop\n      pop\n      jump\t// out\n        /* \"#utility.yul\":6100:6438   */\n    tag_76:\n        /* \"#utility.yul\":6155:6160   */\n      0x00\n        /* \"#utility.yul\":6204:6207   */\n      dup3\n        /* \"#utility.yul\":6197:6201   */\n      0x1f\n        /* \"#utility.yul\":6189:6195   */\n      dup4\n        /* \"#utility.yul\":6185:6202   */\n      add\n        /* \"#utility.yul\":6181:6208   */\n      slt\n        /* \"#utility.yul\":6171:6293   */\n      tag_170\n      jumpi\n        /* \"#utility.yul\":6212:6291   */\n      tag_171\n      tag_71\n      jump\t// in\n    tag_171:\n        /* \"#utility.yul\":6171:6293   */\n    tag_170:\n        /* \"#utility.yul\":6329:6335   */\n      dup2\n        /* \"#utility.yul\":6316:6336   */\n      calldataload\n        /* \"#utility.yul\":6354:6432   */\n      tag_172\n        /* \"#utility.yul\":6428:6431   */\n      dup5\n        /* \"#utility.yul\":6420:6426   */\n      dup3\n        /* \"#utility.yul\":6413:6417   */\n      0x20\n        /* \"#utility.yul\":6405:6411   */\n      dup7\n        /* \"#utility.yul\":6401:6418   */\n      add\n        /* \"#utility.yul\":6354:6432   */\n      tag_75\n      jump\t// in\n    tag_172:\n        /* \"#utility.yul\":6345:6432   */\n      swap2\n      pop\n        /* \"#utility.yul\":6161:6438   */\n      pop\n        /* \"#utility.yul\":6100:6438   */\n      swap3\n      swap2\n      pop\n      pop\n      jump\t// out\n        /* \"#utility.yul\":6444:7237   */\n    tag_13:\n        /* \"#utility.yul\":6528:6534   */\n      0x00\n        /* \"#utility.yul\":6536:6542   */\n      dup1\n        /* \"#utility.yul\":6544:6550   */\n      0x00\n        /* \"#utility.yul\":6593:6595   */\n      0x60\n        /* \"#utility.yul\":6581:6590   */\n      dup5\n        /* \"#utility.yul\":6572:6579   */\n      dup7\n        /* \"#utility.yul\":6568:6591   */\n      sub\n        /* \"#utility.yul\":6564:6596   */\n      slt\n        /* \"#utility.yul\":6561:6680   */\n      iszero\n      tag_174\n      jumpi\n        /* \"#utility.yul\":6599:6678   */\n      tag_175\n      tag_45\n      jump\t// in\n    tag_175:\n        /* \"#utility.yul\":6561:6680   */\n    tag_174:\n        /* \"#utility.yul\":6719:6720   */\n      0x00\n        /* \"#utility.yul\":6744:6796   */\n      tag_176\n        /* \"#utility.yul\":6788:6795   */\n      dup7\n        /* \"#utility.yul\":6779:6785   */\n      dup3\n        /* \"#utility.yul\":6768:6777   */\n      dup8\n        /* \"#utility.yul\":6764:6786   */\n      add\n        /* \"#utility.yul\":6744:6796   */\n      tag_70\n      jump\t// in\n    tag_176:\n        /* \"#utility.yul\":6734:6796   */\n      swap4\n      pop\n        /* \"#utility.yul\":6690:6806   */\n      pop\n        /* \"#utility.yul\":6845:6847   */\n      0x20\n        /* \"#utility.yul\":6871:6923   */\n      tag_177\n        /* \"#utility.yul\":6915:6922   */\n      dup7\n        /* \"#utility.yul\":6906:6912   */\n      dup3\n        /* \"#utility.yul\":6895:6904   */\n      dup8\n        /* \"#utility.yul\":6891:6913   */\n      add\n        /* \"#utility.yul\":6871:6923   */\n      tag_70\n      jump\t// in\n    tag_177:\n        /* \"#utility.yul\":6861:6923   */\n      swap3\n      pop\n        /* \"#utility.yul\":6816:6933   */\n      pop\n        /* \"#utility.yul\":7000:7002   */\n      0x40\n        /* \"#utility.yul\":6989:6998   */\n      dup5\n        /* \"#utility.yul\":6985:7003   */\n      add\n        /* \"#utility.yul\":6972:7004   */\n      calldataload\n        /* \"#utility.yul\":7031:7049   */\n      0xffffffffffffffff\n        /* \"#utility.yul\":7023:7029   */\n      dup2\n        /* \"#utility.yul\":7020:7050   */\n      gt\n        /* \"#utility.yul\":7017:7134   */\n      iszero\n      tag_178\n      jumpi\n        /* \"#utility.yul\":7053:7132   */\n      tag_179\n      tag_46\n      jump\t// in\n    tag_179:\n        /* \"#utility.yul\":7017:7134   */\n    tag_178:\n        /* \"#utility.yul\":7158:7220   */\n      tag_180\n        /* \"#utility.yul\":7212:7219   */\n      dup7\n        /* \"#utility.yul\":7203:7209   */\n      dup3\n        /* \"#utility.yul\":7192:7201   */\n      dup8\n        /* \"#utility.yul\":7188:7210   */\n      add\n        /* \"#utility.yul\":7158:7220   */\n      tag_76\n      jump\t// in\n    tag_180:\n        /* \"#utility.yul\":7148:7220   */\n      swap2\n      pop\n        /* \"#utility.yul\":6943:7230   */\n      pop\n        /* \"#utility.yul\":6444:7237   */\n      swap3\n      pop\n      swap3\n      pop\n      swap3\n      jump\t// out\n        /* \"#utility.yul\":7243:7361   */\n    tag_77:\n        /* \"#utility.yul\":7330:7354   */\n      tag_182\n        /* \"#utility.yul\":7348:7353   */\n      dup2\n        /* \"#utility.yul\":7330:7354   */\n      tag_54\n      jump\t// in\n    tag_182:\n        /* \"#utility.yul\":7325:7328   */\n      dup3\n        /* \"#utility.yul\":7318:7355   */\n      mstore\n        /* \"#utility.yul\":7243:7361   */\n      pop\n      pop\n      jump\t// out\n        /* \"#utility.yul\":7367:7589   */\n    tag_17:\n        /* \"#utility.yul\":7460:7464   */\n      0x00\n        /* \"#utility.yul\":7498:7500   */\n      0x20\n        /* \"#utility.yul\":7487:7496   */\n      dup3\n        /* \"#utility.yul\":7483:7501   */\n      add\n        /* \"#utility.yul\":7475:7501   */\n      swap1\n      pop\n        /* \"#utility.yul\":7511:7582   */\n      tag_184\n        /* \"#utility.yul\":7579:7580   */\n      0x00\n        /* \"#utility.yul\":7568:7577   */\n      dup4\n        /* \"#utility.yul\":7564:7581   */\n      add\n        /* \"#utility.yul\":7555:7561   */\n      dup5\n        /* \"#utility.yul\":7511:7582   */\n      tag_77\n      jump\t// in\n    tag_184:\n        /* \"#utility.yul\":7367:7589   */\n      swap3\n      swap2\n      pop\n      pop\n      jump\t// out\n        /* \"#utility.yul\":7595:7704   */\n    tag_78:\n        /* \"#utility.yul\":7676:7697   */\n      tag_186\n        /* \"#utility.yul\":7691:7696   */\n      dup2\n        /* \"#utility.yul\":7676:7697   */\n      tag_60\n      jump\t// in\n    tag_186:\n        /* \"#utility.yul\":7671:7674   */\n      dup3\n        /* \"#utility.yul\":7664:7698   */\n      mstore\n        /* \"#utility.yul\":7595:7704   */\n      pop\n      pop\n      jump\t// out\n        /* \"#utility.yul\":7710:7808   */\n    tag_79:\n        /* \"#utility.yul\":7761:7767   */\n      0x00\n        /* \"#utility.yul\":7795:7800   */\n      dup2\n        /* \"#utility.yul\":7789:7801   */\n      mload\n        /* \"#utility.yul\":7779:7801   */\n      swap1\n      pop\n        /* \"#utility.yul\":7710:7808   */\n      swap2\n      swap1\n      pop\n      jump\t// out\n        /* \"#utility.yul\":7814:7982   */\n    tag_80:\n        /* \"#utility.yul\":7897:7908   */\n      0x00\n        /* \"#utility.yul\":7931:7937   */\n      dup3\n        /* \"#utility.yul\":7926:7929   */\n      dup3\n        /* \"#utility.yul\":7919:7938   */\n      mstore\n        /* \"#utility.yul\":7971:7975   */\n      0x20\n        /* \"#utility.yul\":7966:7969   */\n      dup3\n        /* \"#utility.yul\":7962:7976   */\n      add\n        /* \"#utility.yul\":7947:7976   */\n      swap1\n      pop\n        /* \"#utility.yul\":7814:7982   */\n      swap3\n      swap2\n      pop\n      pop\n      jump\t// out\n        /* \"#utility.yul\":7988:8234   */\n    tag_81:\n        /* \"#utility.yul\":8069:8070   */\n      0x00\n        /* \"#utility.yul\":8079:8192   */\n    tag_190:\n        /* \"#utility.yul\":8093:8099   */\n      dup4\n        /* \"#utility.yul\":8090:8091   */\n      dup2\n        /* \"#utility.yul\":8087:8100   */\n      lt\n        /* \"#utility.yul\":8079:8192   */\n      iszero\n      tag_192\n      jumpi\n        /* \"#utility.yul\":8178:8179   */\n      dup1\n        /* \"#utility.yul\":8173:8176   */\n      dup3\n        /* \"#utility.yul\":8169:8180   */\n      add\n        /* \"#utility.yul\":8163:8181   */\n      mload\n        /* \"#utility.yul\":8159:8160   */\n      dup2\n        /* \"#utility.yul\":8154:8157   */\n      dup5\n        /* \"#utility.yul\":8150:8161   */\n      add\n        /* \"#utility.yul\":8143:8182   */\n      mstore\n        /* \"#utility.yul\":8115:8117   */\n      0x20\n        /* \"#utility.yul\":8112:8113   */\n      dup2\n        /* \"#utility.yul\":8108:8118   */\n      add\n        /* \"#utility.yul\":8103:8118   */\n      swap1\n      pop\n        /* \"#utility.yul\":8079:8192   */\n      jump(tag_190)\n    tag_192:\n        /* \"#utility.yul\":8226:8227   */\n      0x00\n        /* \"#utility.yul\":8217:8223   */\n      dup5\n        /* \"#utility.yul\":8212:8215   */\n      dup5\n        /* \"#utility.yul\":8208:8224   */\n      add\n        /* \"#utility.yul\":8201:8228   */\n      mstore\n        /* \"#utility.yul\":8050:8234   */\n      pop\n        /* \"#utility.yul\":7988:8234   */\n      pop\n      pop\n      pop\n      jump\t// out\n        /* \"#utility.yul\":8240:8613   */\n    tag_82:\n        /* \"#utility.yul\":8326:8329   */\n      0x00\n        /* \"#utility.yul\":8354:8392   */\n      tag_194\n        /* \"#utility.yul\":8386:8391   */\n      dup3\n        /* \"#utility.yul\":8354:8392   */\n      tag_79\n      jump\t// in\n    tag_194:\n        /* \"#utility.yul\":8408:8478   */\n      tag_195\n        /* \"#utility.yul\":8471:8477   */\n      dup2\n        /* \"#utility.yul\":8466:8469   */\n      dup6\n        /* \"#utility.yul\":8408:8478   */\n      tag_80\n      jump\t// in\n    tag_195:\n        /* \"#utility.yul\":8401:8478   */\n      swap4\n      pop\n        /* \"#utility.yul\":8487:8552   */\n      tag_196\n        /* \"#utility.yul\":8545:8551   */\n      dup2\n        /* \"#utility.yul\":8540:8543   */\n      dup6\n        /* \"#utility.yul\":8533:8537   */\n      0x20\n        /* \"#utility.yul\":8526:8531   */\n      dup7\n        /* \"#utility.yul\":8522:8538   */\n      add\n        /* \"#utility.yul\":8487:8552   */\n      tag_81\n      jump\t// in\n    tag_196:\n        /* \"#utility.yul\":8577:8606   */\n      tag_197\n        /* \"#utility.yul\":8599:8605   */\n      dup2\n        /* \"#utility.yul\":8577:8606   */\n      tag_48\n      jump\t// in\n    tag_197:\n        /* \"#utility.yul\":8572:8575   */\n      dup5\n        /* \"#utility.yul\":8568:8607   */\n      add\n        /* \"#utility.yul\":8561:8607   */\n      swap2\n      pop\n        /* \"#utility.yul\":8330:8613   */\n      pop\n        /* \"#utility.yul\":8240:8613   */\n      swap3\n      swap2\n      pop\n      pop\n      jump\t// out\n        /* \"#utility.yul\":8619:9247   */\n    tag_19:\n        /* \"#utility.yul\":8808:8812   */\n      0x00\n        /* \"#utility.yul\":8846:8849   */\n      0x80\n        /* \"#utility.yul\":8835:8844   */\n      dup3\n        /* \"#utility.yul\":8831:8850   */\n      add\n        /* \"#utility.yul\":8823:8850   */\n      swap1\n      pop\n        /* \"#utility.yul\":8860:8931   */\n      tag_199\n        /* \"#utility.yul\":8928:8929   */\n      0x00\n        /* \"#utility.yul\":8917:8926   */\n      dup4\n        /* \"#utility.yul\":8913:8930   */\n      add\n        /* \"#utility.yul\":8904:8910   */\n      dup8\n        /* \"#utility.yul\":8860:8931   */\n      tag_77\n      jump\t// in\n    tag_199:\n        /* \"#utility.yul\":8941:9007   */\n      tag_200\n        /* \"#utility.yul\":9003:9005   */\n      0x20\n        /* \"#utility.yul\":8992:9001   */\n      dup4\n        /* \"#utility.yul\":8988:9006   */\n      add\n        /* \"#utility.yul\":8979:8985   */\n      dup7\n        /* \"#utility.yul\":8941:9007   */\n      tag_78\n      jump\t// in\n    tag_200:\n        /* \"#utility.yul\":9017:9089   */\n      tag_201\n        /* \"#utility.yul\":9085:9087   */\n      0x40\n        /* \"#utility.yul\":9074:9083   */\n      dup4\n        /* \"#utility.yul\":9070:9088   */\n      add\n        /* \"#utility.yul\":9061:9067   */\n      dup6\n        /* \"#utility.yul\":9017:9089   */\n      tag_64\n      jump\t// in\n    tag_201:\n        /* \"#utility.yul\":9136:9145   */\n      dup2\n        /* \"#utility.yul\":9130:9134   */\n      dup2\n        /* \"#utility.yul\":9126:9146   */\n      sub\n        /* \"#utility.yul\":9121:9123   */\n      0x60\n        /* \"#utility.yul\":9110:9119   */\n      dup4\n        /* \"#utility.yul\":9106:9124   */\n      add\n        /* \"#utility.yul\":9099:9147   */\n      mstore\n        /* \"#utility.yul\":9164:9240   */\n      tag_202\n        /* \"#utility.yul\":9235:9239   */\n      dup2\n        /* \"#utility.yul\":9226:9232   */\n      dup5\n        /* \"#utility.yul\":9164:9240   */\n      tag_82\n      jump\t// in\n    tag_202:\n        /* \"#utility.yul\":9156:9240   */\n      swap1\n      pop\n        /* \"#utility.yul\":8619:9247   */\n      swap6\n      swap5\n      pop\n      pop\n      pop\n      pop\n      pop\n      jump\t// out\n        /* \"#utility.yul\":9253:9394   */\n    tag_83:\n        /* \"#utility.yul\":9309:9314   */\n      0x00\n        /* \"#utility.yul\":9340:9346   */\n      dup2\n        /* \"#utility.yul\":9334:9347   */\n      mload\n        /* \"#utility.yul\":9325:9347   */\n      swap1\n      pop\n        /* \"#utility.yul\":9356:9388   */\n      tag_204\n        /* \"#utility.yul\":9382:9387   */\n      dup2\n        /* \"#utility.yul\":9356:9388   */\n      tag_69\n      jump\t// in\n    tag_204:\n        /* \"#utility.yul\":9253:9394   */\n      swap3\n      swap2\n      pop\n      pop\n      jump\t// out\n        /* \"#utility.yul\":9400:9903   */\n    tag_22:\n        /* \"#utility.yul\":9477:9483   */\n      0x00\n        /* \"#utility.yul\":9485:9491   */\n      dup1\n        /* \"#utility.yul\":9534:9536   */\n      0x40\n        /* \"#utility.yul\":9522:9531   */\n      dup4\n        /* \"#utility.yul\":9513:9520   */\n      dup6\n        /* \"#utility.yul\":9509:9532   */\n      sub\n        /* \"#utility.yul\":9505:9537   */\n      slt\n        /* \"#utility.yul\":9502:9621   */\n      iszero\n      tag_206\n      jumpi\n        /* \"#utility.yul\":9540:9619   */\n      tag_207\n      tag_45\n      jump\t// in\n    tag_207:\n        /* \"#utility.yul\":9502:9621   */\n    tag_206:\n        /* \"#utility.yul\":9660:9661   */\n      0x00\n        /* \"#utility.yul\":9685:9748   */\n      tag_208\n        /* \"#utility.yul\":9740:9747   */\n      dup6\n        /* \"#utility.yul\":9731:9737   */\n      dup3\n        /* \"#utility.yul\":9720:9729   */\n      dup7\n        /* \"#utility.yul\":9716:9738   */\n      add\n        /* \"#utility.yul\":9685:9748   */\n      tag_83\n      jump\t// in\n    tag_208:\n        /* \"#utility.yul\":9675:9748   */\n      swap3\n      pop\n        /* \"#utility.yul\":9631:9758   */\n      pop\n        /* \"#utility.yul\":9797:9799   */\n      0x20\n        /* \"#utility.yul\":9823:9886   */\n      tag_209\n        /* \"#utility.yul\":9878:9885   */\n      dup6\n        /* \"#utility.yul\":9869:9875   */\n      dup3\n        /* \"#utility.yul\":9858:9867   */\n      dup7\n        /* \"#utility.yul\":9854:9876   */\n      add\n        /* \"#utility.yul\":9823:9886   */\n      tag_83\n      jump\t// in\n    tag_209:\n        /* \"#utility.yul\":9813:9886   */\n      swap2\n      pop\n        /* \"#utility.yul\":9768:9896   */\n      pop\n        /* \"#utility.yul\":9400:9903   */\n      swap3\n      pop\n      swap3\n      swap1\n      pop\n      jump\t// out\n        /* \"#utility.yul\":9909:10052   */\n    tag_84:\n        /* \"#utility.yul\":9966:9971   */\n      0x00\n        /* \"#utility.yul\":9997:10003   */\n      dup2\n        /* \"#utility.yul\":9991:10004   */\n      mload\n        /* \"#utility.yul\":9982:10004   */\n      swap1\n      pop\n        /* \"#utility.yul\":10013:10046   */\n      tag_211\n        /* \"#utility.yul\":10040:10045   */\n      dup2\n        /* \"#utility.yul\":10013:10046   */\n      tag_58\n      jump\t// in\n    tag_211:\n        /* \"#utility.yul\":9909:10052   */\n      swap3\n      swap2\n      pop\n      pop\n      jump\t// out\n        /* \"#utility.yul\":10058:10180   */\n    tag_85:\n        /* \"#utility.yul\":10131:10155   */\n      tag_213\n        /* \"#utility.yul\":10149:10154   */\n      dup2\n        /* \"#utility.yul\":10131:10155   */\n      tag_53\n      jump\t// in\n    tag_213:\n        /* \"#utility.yul\":10124:10129   */\n      dup2\n        /* \"#utility.yul\":10121:10156   */\n      eq\n        /* \"#utility.yul\":10111:10174   */\n      tag_214\n      jumpi\n        /* \"#utility.yul\":10170:10171   */\n      0x00\n        /* \"#utility.yul\":10167:10168   */\n      dup1\n        /* \"#utility.yul\":10160:10172   */\n      revert\n        /* \"#utility.yul\":10111:10174   */\n    tag_214:\n        /* \"#utility.yul\":10058:10180   */\n      pop\n      jump\t// out\n        /* \"#utility.yul\":10186:10329   */\n    tag_86:\n        /* \"#utility.yul\":10243:10248   */\n      0x00\n        /* \"#utility.yul\":10274:10280   */\n      dup2\n        /* \"#utility.yul\":10268:10281   */\n      mload\n        /* \"#utility.yul\":10259:10281   */\n      swap1\n      pop\n        /* \"#utility.yul\":10290:10323   */\n      tag_216\n        /* \"#utility.yul\":10317:10322   */\n      dup2\n        /* \"#utility.yul\":10290:10323   */\n      tag_85\n      jump\t// in\n    tag_216:\n        /* \"#utility.yul\":10186:10329   */\n      swap3\n      swap2\n      pop\n      pop\n      jump\t// out\n        /* \"#utility.yul\":10335:10453   */\n    tag_87:\n        /* \"#utility.yul\":10406:10428   */\n      tag_218\n        /* \"#utility.yul\":10422:10427   */\n      dup2\n        /* \"#utility.yul\":10406:10428   */\n      tag_66\n      jump\t// in\n    tag_218:\n        /* \"#utility.yul\":10399:10404   */\n      dup2\n        /* \"#utility.yul\":10396:10429   */\n      eq\n        /* \"#utility.yul\":10386:10447   */\n      tag_219\n      jumpi\n        /* \"#utility.yul\":10443:10444   */\n      0x00\n        /* \"#utility.yul\":10440:10441   */\n      dup1\n        /* \"#utility.yul\":10433:10445   */\n      revert\n        /* \"#utility.yul\":10386:10447   */\n    tag_219:\n        /* \"#utility.yul\":10335:10453   */\n      pop\n      jump\t// out\n        /* \"#utility.yul\":10459:10598   */\n    tag_88:\n        /* \"#utility.yul\":10514:10519   */\n      0x00\n        /* \"#utility.yul\":10545:10551   */\n      dup2\n        /* \"#utility.yul\":10539:10552   */\n      mload\n        /* \"#utility.yul\":10530:10552   */\n      swap1\n      pop\n        /* \"#utility.yul\":10561:10592   */\n      tag_221\n        /* \"#utility.yul\":10586:10591   */\n      dup2\n        /* \"#utility.yul\":10561:10592   */\n      tag_87\n      jump\t// in\n    tag_221:\n        /* \"#utility.yul\":10459:10598   */\n      swap3\n      swap2\n      pop\n      pop\n      jump\t// out\n        /* \"#utility.yul\":10604:11263   */\n    tag_30:\n        /* \"#utility.yul\":10690:10696   */\n      0x00\n        /* \"#utility.yul\":10698:10704   */\n      dup1\n        /* \"#utility.yul\":10706:10712   */\n      0x00\n        /* \"#utility.yul\":10755:10757   */\n      0x60\n        /* \"#utility.yul\":10743:10752   */\n      dup5\n        /* \"#utility.yul\":10734:10741   */\n      dup7\n        /* \"#utility.yul\":10730:10753   */\n      sub\n        /* \"#utility.yul\":10726:10758   */\n      slt\n        /* \"#utility.yul\":10723:10842   */\n      iszero\n      tag_223\n      jumpi\n        /* \"#utility.yul\":10761:10840   */\n      tag_224\n      tag_45\n      jump\t// in\n    tag_224:\n        /* \"#utility.yul\":10723:10842   */\n    tag_223:\n        /* \"#utility.yul\":10881:10882   */\n      0x00\n        /* \"#utility.yul\":10906:10970   */\n      tag_225\n        /* \"#utility.yul\":10962:10969   */\n      dup7\n        /* \"#utility.yul\":10953:10959   */\n      dup3\n        /* \"#utility.yul\":10942:10951   */\n      dup8\n        /* \"#utility.yul\":10938:10960   */\n      add\n        /* \"#utility.yul\":10906:10970   */\n      tag_84\n      jump\t// in\n    tag_225:\n        /* \"#utility.yul\":10896:10970   */\n      swap4\n      pop\n        /* \"#utility.yul\":10852:10980   */\n      pop\n        /* \"#utility.yul\":11019:11021   */\n      0x20\n        /* \"#utility.yul\":11045:11109   */\n      tag_226\n        /* \"#utility.yul\":11101:11108   */\n      dup7\n        /* \"#utility.yul\":11092:11098   */\n      dup3\n        /* \"#utility.yul\":11081:11090   */\n      dup8\n        /* \"#utility.yul\":11077:11099   */\n      add\n        /* \"#utility.yul\":11045:11109   */\n      tag_86\n      jump\t// in\n    tag_226:\n        /* \"#utility.yul\":11035:11109   */\n      swap3\n      pop\n        /* \"#utility.yul\":10990:11119   */\n      pop\n        /* \"#utility.yul\":11158:11160   */\n      0x40\n        /* \"#utility.yul\":11184:11246   */\n      tag_227\n        /* \"#utility.yul\":11238:11245   */\n      dup7\n        /* \"#utility.yul\":11229:11235   */\n      dup3\n        /* \"#utility.yul\":11218:11227   */\n      dup8\n        /* \"#utility.yul\":11214:11236   */\n      add\n        /* \"#utility.yul\":11184:11246   */\n      tag_88\n      jump\t// in\n    tag_227:\n        /* \"#utility.yul\":11174:11246   */\n      swap2\n      pop\n        /* \"#utility.yul\":11129:11256   */\n      pop\n        /* \"#utility.yul\":10604:11263   */\n      swap3\n      pop\n      swap3\n      pop\n      swap3\n      jump\t// out\n        /* \"#utility.yul\":11269:11373   */\n    tag_89:\n        /* \"#utility.yul\":11314:11321   */\n      0x00\n        /* \"#utility.yul\":11343:11367   */\n      tag_229\n        /* \"#utility.yul\":11361:11366   */\n      dup3\n        /* \"#utility.yul\":11343:11367   */\n      tag_53\n      jump\t// in\n    tag_229:\n        /* \"#utility.yul\":11332:11367   */\n      swap1\n      pop\n        /* \"#utility.yul\":11269:11373   */\n      swap2\n      swap1\n      pop\n      jump\t// out\n        /* \"#utility.yul\":11379:11517   */\n    tag_90:\n        /* \"#utility.yul\":11460:11492   */\n      tag_231\n        /* \"#utility.yul\":11486:11491   */\n      dup2\n        /* \"#utility.yul\":11460:11492   */\n      tag_89\n      jump\t// in\n    tag_231:\n        /* \"#utility.yul\":11453:11458   */\n      dup2\n        /* \"#utility.yul\":11450:11493   */\n      eq\n        /* \"#utility.yul\":11440:11511   */\n      tag_232\n      jumpi\n        /* \"#utility.yul\":11507:11508   */\n      0x00\n        /* \"#utility.yul\":11504:11505   */\n      dup1\n        /* \"#utility.yul\":11497:11509   */\n      revert\n        /* \"#utility.yul\":11440:11511   */\n    tag_232:\n        /* \"#utility.yul\":11379:11517   */\n      pop\n      jump\t// out\n        /* \"#utility.yul\":11523:11682   */\n    tag_91:\n        /* \"#utility.yul\":11588:11593   */\n      0x00\n        /* \"#utility.yul\":11619:11625   */\n      dup2\n        /* \"#utility.yul\":11613:11626   */\n      mload\n        /* \"#utility.yul\":11604:11626   */\n      swap1\n      pop\n        /* \"#utility.yul\":11635:11676   */\n      tag_234\n        /* \"#utility.yul\":11670:11675   */\n      dup2\n        /* \"#utility.yul\":11635:11676   */\n      tag_90\n      jump\t// in\n    tag_234:\n        /* \"#utility.yul\":11523:11682   */\n      swap3\n      swap2\n      pop\n      pop\n      jump\t// out\n        /* \"#utility.yul\":11688:12055   */\n    tag_34:\n        /* \"#utility.yul\":11766:11772   */\n      0x00\n        /* \"#utility.yul\":11815:11817   */\n      0x20\n        /* \"#utility.yul\":11803:11812   */\n      dup3\n        /* \"#utility.yul\":11794:11801   */\n      dup5\n        /* \"#utility.yul\":11790:11813   */\n      sub\n        /* \"#utility.yul\":11786:11818   */\n      slt\n        /* \"#utility.yul\":11783:11902   */\n      iszero\n      tag_236\n      jumpi\n        /* \"#utility.yul\":11821:11900   */\n      tag_237\n      tag_45\n      jump\t// in\n    tag_237:\n        /* \"#utility.yul\":11783:11902   */\n    tag_236:\n        /* \"#utility.yul\":11941:11942   */\n      0x00\n        /* \"#utility.yul\":11966:12038   */\n      tag_238\n        /* \"#utility.yul\":12030:12037   */\n      dup5\n        /* \"#utility.yul\":12021:12027   */\n      dup3\n        /* \"#utility.yul\":12010:12019   */\n      dup6\n        /* \"#utility.yul\":12006:12028   */\n      add\n        /* \"#utility.yul\":11966:12038   */\n      tag_91\n      jump\t// in\n    tag_238:\n        /* \"#utility.yul\":11956:12038   */\n      swap2\n      pop\n        /* \"#utility.yul\":11912:12048   */\n      pop\n        /* \"#utility.yul\":11688:12055   */\n      swap3\n      swap2\n      pop\n      pop\n      jump\t// out\n        /* \"#utility.yul\":12061:12241   */\n    tag_92:\n        /* \"#utility.yul\":12109:12186   */\n      0x4e487b7100000000000000000000000000000000000000000000000000000000\n        /* \"#utility.yul\":12106:12107   */\n      0x00\n        /* \"#utility.yul\":12099:12187   */\n      mstore\n        /* \"#utility.yul\":12206:12210   */\n      0x11\n        /* \"#utility.yul\":12203:12204   */\n      0x04\n        /* \"#utility.yul\":12196:12211   */\n      mstore\n        /* \"#utility.yul\":12230:12234   */\n      0x24\n        /* \"#utility.yul\":12227:12228   */\n      0x00\n        /* \"#utility.yul\":12220:12235   */\n      revert\n        /* \"#utility.yul\":12247:12475   */\n    tag_37:\n        /* \"#utility.yul\":12282:12285   */\n      0x00\n        /* \"#utility.yul\":12305:12328   */\n      tag_241\n        /* \"#utility.yul\":12322:12327   */\n      dup3\n        /* \"#utility.yul\":12305:12328   */\n      tag_68\n      jump\t// in\n    tag_241:\n        /* \"#utility.yul\":12296:12328   */\n      swap2\n      pop\n        /* \"#utility.yul\":12350:12416   */\n      0x8000000000000000000000000000000000000000000000000000000000000000\n        /* \"#utility.yul\":12343:12348   */\n      dup3\n        /* \"#utility.yul\":12340:12417   */\n      sub\n        /* \"#utility.yul\":12337:12440   */\n      tag_242\n      jumpi\n        /* \"#utility.yul\":12420:12438   */\n      tag_243\n      tag_92\n      jump\t// in\n    tag_243:\n        /* \"#utility.yul\":12337:12440   */\n    tag_242:\n        /* \"#utility.yul\":12463:12468   */\n      dup2\n        /* \"#utility.yul\":12460:12461   */\n      0x00\n        /* \"#utility.yul\":12456:12469   */\n      sub\n        /* \"#utility.yul\":12449:12469   */\n      swap1\n      pop\n        /* \"#utility.yul\":12247:12475   */\n      swap2\n      swap1\n      pop\n      jump\t// out\n        /* \"#utility.yul\":12481:12984   */\n    tag_43:\n        /* \"#utility.yul\":12558:12564   */\n      0x00\n        /* \"#utility.yul\":12566:12572   */\n      dup1\n        /* \"#utility.yul\":12615:12617   */\n      0x40\n        /* \"#utility.yul\":12603:12612   */\n      dup4\n        /* \"#utility.yul\":12594:12601   */\n      dup6\n        /* \"#utility.yul\":12590:12613   */\n      sub\n        /* \"#utility.yul\":12586:12618   */\n      slt\n        /* \"#utility.yul\":12583:12702   */\n      iszero\n      tag_245\n      jumpi\n        /* \"#utility.yul\":12621:12700   */\n      tag_246\n      tag_45\n      jump\t// in\n    tag_246:\n        /* \"#utility.yul\":12583:12702   */\n    tag_245:\n        /* \"#utility.yul\":12741:12742   */\n      0x00\n        /* \"#utility.yul\":12766:12830   */\n      tag_247\n        /* \"#utility.yul\":12822:12829   */\n      dup6\n        /* \"#utility.yul\":12813:12819   */\n      dup3\n        /* \"#utility.yul\":12802:12811   */\n      dup7\n        /* \"#utility.yul\":12798:12820   */\n      add\n        /* \"#utility.yul\":12766:12830   */\n      tag_86\n      jump\t// in\n    tag_247:\n        /* \"#utility.yul\":12756:12830   */\n      swap3\n      pop\n        /* \"#utility.yul\":12712:12840   */\n      pop\n        /* \"#utility.yul\":12879:12881   */\n      0x20\n        /* \"#utility.yul\":12905:12967   */\n      tag_248\n        /* \"#utility.yul\":12959:12966   */\n      dup6\n        /* \"#utility.yul\":12950:12956   */\n      dup3\n        /* \"#utility.yul\":12939:12948   */\n      dup7\n        /* \"#utility.yul\":12935:12957   */\n      add\n        /* \"#utility.yul\":12905:12967   */\n      tag_88\n      jump\t// in\n    tag_248:\n        /* \"#utility.yul\":12895:12967   */\n      swap2\n      pop\n        /* \"#utility.yul\":12850:12977   */\n      pop\n        /* \"#utility.yul\":12481:12984   */\n      swap3\n      pop\n      swap3\n      swap1\n      pop\n      jump\t// out\n\n    auxdata: 0xa2646970667358221220a08eb36baf5cfe8d442a2e464405f3305d1745fde1858fbbc60c150ea74a3b0464736f6c63430008160033\n}\n",
				"bytecode": {
					"linkReferences": {},
					"object": "608060405234801561000f575f80fd5b5061094f8061001d5f395ff3fe608060405234801561000f575f80fd5b5060043610610034575f3560e01c80635af288b114610038578063fa461e331461006a575b5f80fd5b610052600480360381019061004d9190610411565b610086565b60405161006193929190610475565b60405180910390f35b610084600480360381019061007f9190610591565b61018d565b005b5f805f835f015173ffffffffffffffffffffffffffffffffffffffff166380c2c6ef3086604001518760200151885f01516040516020016100c7919061060c565b6040516020818303038152906040526040518563ffffffff1660e01b81526004016100f594939291906106ae565b60408051808303815f875af192505050801561012f57506040513d601f19601f8201168201806040525081019061012c919061070c565b60015b610183573d805f811461015d576040519150601f19603f3d011682016040523d82523d5f602084013e610162565b606091505b508080602001905181019061017791906107b2565b93509350935050610186565b50505b9193909250565b5f818060200190518101906101a2919061083d565b90505f8085136101bb57846101b690610895565b6101c6565b836101c590610895565b5b90505f808373ffffffffffffffffffffffffffffffffffffffff16633850c7bd6040518163ffffffff1660e01b81526004016040805180830381865afa158015610212573d5f803e3d5ffd5b505050506040513d601f19601f8201168201806040525081019061023691906108db565b91509150604051838152826020820152816040820152606081fd5b5f604051905090565b5f80fd5b5f80fd5b5f80fd5b5f601f19601f8301169050919050565b7f4e487b71000000000000000000000000000000000000000000000000000000005f52604160045260245ffd5b6102ac82610266565b810181811067ffffffffffffffff821117156102cb576102ca610276565b5b80604052505050565b5f6102dd610251565b90506102e982826102a3565b919050565b5f73ffffffffffffffffffffffffffffffffffffffff82169050919050565b5f610317826102ee565b9050919050565b6103278161030d565b8114610331575f80fd5b50565b5f813590506103428161031e565b92915050565b5f819050919050565b61035a81610348565b8114610364575f80fd5b50565b5f8135905061037581610351565b92915050565b5f8115159050919050565b61038f8161037b565b8114610399575f80fd5b50565b5f813590506103aa81610386565b92915050565b5f606082840312156103c5576103c4610262565b5b6103cf60606102d4565b90505f6103de84828501610334565b5f8301525060206103f184828501610367565b60208301525060406104058482850161039c565b60408301525092915050565b5f606082840312156104265761042561025a565b5b5f610433848285016103b0565b91505092915050565b61044581610348565b82525050565b610454816102ee565b82525050565b5f8160020b9050919050565b61046f8161045a565b82525050565b5f6060820190506104885f83018661043c565b610495602083018561044b565b6104a26040830184610466565b949350505050565b5f819050919050565b6104bc816104aa565b81146104c6575f80fd5b50565b5f813590506104d7816104b3565b92915050565b5f80fd5b5f80fd5b5f67ffffffffffffffff8211156104ff576104fe610276565b5b61050882610266565b9050602081019050919050565b828183375f83830152505050565b5f610535610530846104e5565b6102d4565b905082815260208101848484011115610551576105506104e1565b5b61055c848285610515565b509392505050565b5f82601f830112610578576105776104dd565b5b8135610588848260208601610523565b91505092915050565b5f805f606084860312156105a8576105a761025a565b5b5f6105b5868287016104c9565b93505060206105c6868287016104c9565b925050604084013567ffffffffffffffff8111156105e7576105e661025e565b5b6105f386828701610564565b9150509250925092565b6106068161030d565b82525050565b5f60208201905061061f5f8301846105fd565b92915050565b61062e8161037b565b82525050565b5f81519050919050565b5f82825260208201905092915050565b5f5b8381101561066b578082015181840152602081019050610650565b5f8484015250505050565b5f61068082610634565b61068a818561063e565b935061069a81856020860161064e565b6106a381610266565b840191505092915050565b5f6080820190506106c15f8301876105fd565b6106ce6020830186610625565b6106db604083018561043c565b81810360608301526106ed8184610676565b905095945050505050565b5f81519050610706816104b3565b92915050565b5f80604083850312156107225761072161025a565b5b5f61072f858286016106f8565b9250506020610740858286016106f8565b9150509250929050565b5f8151905061075881610351565b92915050565b610767816102ee565b8114610771575f80fd5b50565b5f815190506107828161075e565b92915050565b6107918161045a565b811461079b575f80fd5b50565b5f815190506107ac81610788565b92915050565b5f805f606084860312156107c9576107c861025a565b5b5f6107d68682870161074a565b93505060206107e786828701610774565b92505060406107f88682870161079e565b9150509250925092565b5f61080c826102ee565b9050919050565b61081c81610802565b8114610826575f80fd5b50565b5f8151905061083781610813565b92915050565b5f602082840312156108525761085161025a565b5b5f61085f84828501610829565b91505092915050565b7f4e487b71000000000000000000000000000000000000000000000000000000005f52601160045260245ffd5b5f61089f826104aa565b91507f800000000000000000000000000000000000000000000000000000000000000082036108d1576108d0610868565b5b815f039050919050565b5f80604083850312156108f1576108f061025a565b5b5f6108fe85828601610774565b925050602061090f8582860161079e565b915050925092905056fea2646970667358221220a08eb36baf5cfe8d442a2e464405f3305d1745fde1858fbbc60c150ea74a3b0464736f6c63430008160033",
					"opcodes": "PUSH1 0x80 PUSH1 0x40 MSTORE CALLVALUE DUP1 ISZERO PUSH2 0xF JUMPI PUSH0 DUP1 REVERT JUMPDEST POP PUSH2 0x94F DUP1 PUSH2 0x1D PUSH0 CODECOPY PUSH0 RETURN INVALID PUSH1 0x80 PUSH1 0x40 MSTORE CALLVALUE DUP1 ISZERO PUSH2 0xF JUMPI PUSH0 DUP1 REVERT JUMPDEST POP PUSH1 0x4 CALLDATASIZE LT PUSH2 0x34 JUMPI PUSH0 CALLDATALOAD PUSH1 0xE0 SHR DUP1 PUSH4 0x5AF288B1 EQ PUSH2 0x38 JUMPI DUP1 PUSH4 0xFA461E33 EQ PUSH2 0x6A JUMPI JUMPDEST PUSH0 DUP1 REVERT JUMPDEST PUSH2 0x52 PUSH1 0x4 DUP1 CALLDATASIZE SUB DUP2 ADD SWAP1 PUSH2 0x4D SWAP2 SWAP1 PUSH2 0x411 JUMP JUMPDEST PUSH2 0x86 JUMP JUMPDEST PUSH1 0x40 MLOAD PUSH2 0x61 SWAP4 SWAP3 SWAP2 SWAP1 PUSH2 0x475 JUMP JUMPDEST PUSH1 0x40 MLOAD DUP1 SWAP2 SUB SWAP1 RETURN JUMPDEST PUSH2 0x84 PUSH1 0x4 DUP1 CALLDATASIZE SUB DUP2 ADD SWAP1 PUSH2 0x7F SWAP2 SWAP1 PUSH2 0x591 JUMP JUMPDEST PUSH2 0x18D JUMP JUMPDEST STOP JUMPDEST PUSH0 DUP1 PUSH0 DUP4 PUSH0 ADD MLOAD PUSH20 0xFFFFFFFFFFFFFFFFFFFFFFFFFFFFFFFFFFFFFFFF AND PUSH4 0x80C2C6EF ADDRESS DUP7 PUSH1 0x40 ADD MLOAD DUP8 PUSH1 0x20 ADD MLOAD DUP9 PUSH0 ADD MLOAD PUSH1 0x40 MLOAD PUSH1 0x20 ADD PUSH2 0xC7 SWAP2 SWAP1 PUSH2 0x60C JUMP JUMPDEST PUSH1 0x40 MLOAD PUSH1 0x20 DUP2 DUP4 SUB SUB DUP2 MSTORE SWAP1 PUSH1 0x40 MSTORE PUSH1 0x40 MLOAD DUP6 PUSH4 0xFFFFFFFF AND PUSH1 0xE0 SHL DUP2 MSTORE PUSH1 0x4 ADD PUSH2 0xF5 SWAP5 SWAP4 SWAP3 SWAP2 SWAP1 PUSH2 0x6AE JUMP JUMPDEST PUSH1 0x40 DUP1 MLOAD DUP1 DUP4 SUB DUP2 PUSH0 DUP8 GAS CALL SWAP3 POP POP POP DUP1 ISZERO PUSH2 0x12F JUMPI POP PUSH1 0x40 MLOAD RETURNDATASIZE PUSH1 0x1F NOT PUSH1 0x1F DUP3 ADD AND DUP3 ADD DUP1 PUSH1 0x40 MSTORE POP DUP2 ADD SWAP1 PUSH2 0x12C SWAP2 SWAP1 PUSH2 0x70C JUMP JUMPDEST PUSH1 0x1 JUMPDEST PUSH2 0x183 JUMPI RETURNDATASIZE DUP1 PUSH0 DUP2 EQ PUSH2 0x15D JUMPI PUSH1 0x40 MLOAD SWAP2 POP PUSH1 0x1F NOT PUSH1 0x3F RETURNDATASIZE ADD AND DUP3 ADD PUSH1 0x40 MSTORE RETURNDATASIZE DUP3 MSTORE RETURNDATASIZE PUSH0 PUSH1 0x20 DUP5 ADD RETURNDATACOPY PUSH2 0x162 JUMP JUMPDEST PUSH1 0x60 SWAP2 POP JUMPDEST POP DUP1 DUP1 PUSH1 0x20 ADD SWAP1 MLOAD DUP2 ADD SWAP1 PUSH2 0x177 SWAP2 SWAP1 PUSH2 0x7B2 JUMP JUMPDEST SWAP4 POP SWAP4 POP SWAP4 POP POP PUSH2 0x186 JUMP JUMPDEST POP POP JUMPDEST SWAP2 SWAP4 SWAP1 SWAP3 POP JUMP JUMPDEST PUSH0 DUP2 DUP1 PUSH1 0x20 ADD SWAP1 MLOAD DUP2 ADD SWAP1 PUSH2 0x1A2 SWAP2 SWAP1 PUSH2 0x83D JUMP JUMPDEST SWAP1 POP PUSH0 DUP1 DUP6 SGT PUSH2 0x1BB JUMPI DUP5 PUSH2 0x1B6 SWAP1 PUSH2 0x895 JUMP JUMPDEST PUSH2 0x1C6 JUMP JUMPDEST DUP4 PUSH2 0x1C5 SWAP1 PUSH2 0x895 JUMP JUMPDEST JUMPDEST SWAP1 POP PUSH0 DUP1 DUP4 PUSH20 0xFFFFFFFFFFFFFFFFFFFFFFFFFFFFFFFFFFFFFFFF AND PUSH4 0x3850C7BD PUSH1 0x40 MLOAD DUP2 PUSH4 0xFFFFFFFF AND PUSH1 0xE0 SHL DUP2 MSTORE PUSH1 0x4 ADD PUSH1 0x40 DUP1 MLOAD DUP1 DUP4 SUB DUP2 DUP7 GAS STATICCALL ISZERO DUP1 ISZERO PUSH2 0x212 JUMPI RETURNDATASIZE PUSH0 DUP1 RETURNDATACOPY RETURNDATASIZE PUSH0 REVERT JUMPDEST POP POP POP POP PUSH1 0x40 MLOAD RETURNDATASIZE PUSH1 0x1F NOT PUSH1 0x1F DUP3 ADD AND DUP3 ADD DUP1 PUSH1 0x40 MSTORE POP DUP2 ADD SWAP1 PUSH2 0x236 SWAP2 SWAP1 PUSH2 0x8DB JUMP JUMPDEST SWAP2 POP SWAP2 POP PUSH1 0x40 MLOAD DUP4 DUP2 MSTORE DUP3 PUSH1 0x20 DUP3 ADD MSTORE DUP2 PUSH1 0x40 DUP3 ADD MSTORE PUSH1 0x60 DUP2 REVERT JUMPDEST PUSH0 PUSH1 0x40 MLOAD SWAP1 POP SWAP1 JUMP JUMPDEST PUSH0 DUP1 REVERT JUMPDEST PUSH0 DUP1 REVERT JUMPDEST PUSH0 DUP1 REVERT JUMPDEST PUSH0 PUSH1 0x1F NOT PUSH1 0x1F DUP4 ADD AND SWAP1 POP SWAP2 SWAP1 POP JUMP JUMPDEST PUSH32 0x4E487B7100000000000000000000000000000000000000000000000000000000 PUSH0 MSTORE PUSH1 0x41 PUSH1 0x4 MSTORE PUSH1 0x24 PUSH0 REVERT JUMPDEST PUSH2 0x2AC DUP3 PUSH2 0x266 JUMP JUMPDEST DUP2 ADD DUP2 DUP2 LT PUSH8 0xFFFFFFFFFFFFFFFF DUP3 GT OR ISZERO PUSH2 0x2CB JUMPI PUSH2 0x2CA PUSH2 0x276 JUMP JUMPDEST JUMPDEST DUP1 PUSH1 0x40 MSTORE POP POP POP JUMP JUMPDEST PUSH0 PUSH2 0x2DD PUSH2 0x251 JUMP JUMPDEST SWAP1 POP PUSH2 0x2E9 DUP3 DUP3 PUSH2 0x2A3 JUMP JUMPDEST SWAP2 SWAP1 POP JUMP JUMPDEST PUSH0 PUSH20 0xFFFFFFFFFFFFFFFFFFFFFFFFFFFFFFFFFFFFFFFF DUP3 AND SWAP1 POP SWAP2 SWAP1 POP JUMP JUMPDEST PUSH0 PUSH2 0x317 DUP3 PUSH2 0x2EE JUMP JUMPDEST SWAP1 POP SWAP2 SWAP1 POP JUMP JUMPDEST PUSH2 0x327 DUP2 PUSH2 0x30D JUMP JUMPDEST DUP2 EQ PUSH2 0x331 JUMPI PUSH0 DUP1 REVERT JUMPDEST POP JUMP JUMPDEST PUSH0 DUP2 CALLDATALOAD SWAP1 POP PUSH2 0x342 DUP2 PUSH2 0x31E JUMP JUMPDEST SWAP3 SWAP2 POP POP JUMP JUMPDEST PUSH0 DUP2 SWAP1 POP SWAP2 SWAP1 POP JUMP JUMPDEST PUSH2 0x35A DUP2 PUSH2 0x348 JUMP JUMPDEST DUP2 EQ PUSH2 0x364 JUMPI PUSH0 DUP1 REVERT JUMPDEST POP JUMP JUMPDEST PUSH0 DUP2 CALLDATALOAD SWAP1 POP PUSH2 0x375 DUP2 PUSH2 0x351 JUMP JUMPDEST SWAP3 SWAP2 POP POP JUMP JUMPDEST PUSH0 DUP2 ISZERO ISZERO SWAP1 POP SWAP2 SWAP1 POP JUMP JUMPDEST PUSH2 0x38F DUP2 PUSH2 0x37B JUMP JUMPDEST DUP2 EQ PUSH2 0x399 JUMPI PUSH0 DUP1 REVERT JUMPDEST POP JUMP JUMPDEST PUSH0 DUP2 CALLDATALOAD SWAP1 POP PUSH2 0x3AA DUP2 PUSH2 0x386 JUMP JUMPDEST SWAP3 SWAP2 POP POP JUMP JUMPDEST PUSH0 PUSH1 0x60 DUP3 DUP5 SUB SLT ISZERO PUSH2 0x3C5 JUMPI PUSH2 0x3C4 PUSH2 0x262 JUMP JUMPDEST JUMPDEST PUSH2 0x3CF PUSH1 0x60 PUSH2 0x2D4 JUMP JUMPDEST SWAP1 POP PUSH0 PUSH2 0x3DE DUP5 DUP3 DUP6 ADD PUSH2 0x334 JUMP JUMPDEST PUSH0 DUP4 ADD MSTORE POP PUSH1 0x20 PUSH2 0x3F1 DUP5 DUP3 DUP6 ADD PUSH2 0x367 JUMP JUMPDEST PUSH1 0x20 DUP4 ADD MSTORE POP PUSH1 0x40 PUSH2 0x405 DUP5 DUP3 DUP6 ADD PUSH2 0x39C JUMP JUMPDEST PUSH1 0x40 DUP4 ADD MSTORE POP SWAP3 SWAP2 POP POP JUMP JUMPDEST PUSH0 PUSH1 0x60 DUP3 DUP5 SUB SLT ISZERO PUSH2 0x426 JUMPI PUSH2 0x425 PUSH2 0x25A JUMP JUMPDEST JUMPDEST PUSH0 PUSH2 0x433 DUP5 DUP3 DUP6 ADD PUSH2 0x3B0 JUMP JUMPDEST SWAP2 POP POP SWAP3 SWAP2 POP POP JUMP JUMPDEST PUSH2 0x445 DUP2 PUSH2 0x348 JUMP JUMPDEST DUP3 MSTORE POP POP JUMP JUMPDEST PUSH2 0x454 DUP2 PUSH2 0x2EE JUMP JUMPDEST DUP3 MSTORE POP POP JUMP JUMPDEST PUSH0 DUP2 PUSH1 0x2 SIGNEXTEND SWAP1 POP SWAP2 SWAP1 POP JUMP JUMPDEST PUSH2 0x46F DUP2 PUSH2 0x45A JUMP JUMPDEST DUP3 MSTORE POP POP JUMP JUMPDEST PUSH0 PUSH1 0x60 DUP3 ADD SWAP1 POP PUSH2 0x488 PUSH0 DUP4 ADD DUP7 PUSH2 0x43C JUMP JUMPDEST PUSH2 0x495 PUSH1 0x20 DUP4 ADD DUP6 PUSH2 0x44B JUMP JUMPDEST PUSH2 0x4A2 PUSH1 0x40 DUP4 ADD DUP5 PUSH2 0x466 JUMP JUMPDEST SWAP5 SWAP4 POP POP POP POP JUMP JUMPDEST PUSH0 DUP2 SWAP1 POP SWAP2 SWAP1 POP JUMP JUMPDEST PUSH2 0x4BC DUP2 PUSH2 0x4AA JUMP JUMPDEST DUP2 EQ PUSH2 0x4C6 JUMPI PUSH0 DUP1 REVERT JUMPDEST POP JUMP JUMPDEST PUSH0 DUP2 CALLDATALOAD SWAP1 POP PUSH2 0x4D7 DUP2 PUSH2 0x4B3 JUMP JUMPDEST SWAP3 SWAP2 POP POP JUMP JUMPDEST PUSH0 DUP1 REVERT JUMPDEST PUSH0 DUP1 REVERT JUMPDEST PUSH0 PUSH8 0xFFFFFFFFFFFFFFFF DUP3 GT ISZERO PUSH2 0x4FF JUMPI PUSH2 0x4FE PUSH2 0x276 JUMP JUMPDEST JUMPDEST PUSH2 0x508 DUP3 PUSH2 0x266 JUMP JUMPDEST SWAP1 POP PUSH1 0x20 DUP2 ADD SWAP1 POP SWAP2 SWAP1 POP JUMP JUMPDEST DUP3 DUP2 DUP4 CALLDATACOPY PUSH0 DUP4 DUP4 ADD MSTORE POP POP POP JUMP JUMPDEST PUSH0 PUSH2 0x535 PUSH2 0x530 DUP5 PUSH2 0x4E5 JUMP JUMPDEST PUSH2 0x2D4 JUMP JUMPDEST SWAP1 POP DUP3 DUP2 MSTORE PUSH1 0x20 DUP2 ADD DUP5 DUP5 DUP5 ADD GT ISZERO PUSH2 0x551 JUMPI PUSH2 0x550 PUSH2 0x4E1 JUMP JUMPDEST JUMPDEST PUSH2 0x55C DUP5 DUP3 DUP6 PUSH2 0x515 JUMP JUMPDEST POP SWAP4 SWAP3 POP POP POP JUMP JUMPDEST PUSH0 DUP3 PUSH1 0x1F DUP4 ADD SLT PUSH2 0x578 JUMPI PUSH2 0x577 PUSH2 0x4DD JUMP JUMPDEST JUMPDEST DUP2 CALLDATALOAD PUSH2 0x588 DUP5 DUP3 PUSH1 0x20 DUP7 ADD PUSH2 0x523 JUMP JUMPDEST SWAP2 POP POP SWAP3 SWAP2 POP POP JUMP JUMPDEST PUSH0 DUP1 PUSH0 PUSH1 0x60 DUP5 DUP7 SUB SLT ISZERO PUSH2 0x5A8 JUMPI PUSH2 0x5A7 PUSH2 0x25A JUMP JUMPDEST JUMPDEST PUSH0 PUSH2 0x5B5 DUP7 DUP3 DUP8 ADD PUSH2 0x4C9 JUMP JUMPDEST SWAP4 POP POP PUSH1 0x20 PUSH2 0x5C6 DUP7 DUP3 DUP8 ADD PUSH2 0x4C9 JUMP JUMPDEST SWAP3 POP POP PUSH1 0x40 DUP5 ADD CALLDATALOAD PUSH8 0xFFFFFFFFFFFFFFFF DUP2 GT ISZERO PUSH2 0x5E7 JUMPI PUSH2 0x5E6 PUSH2 0x25E JUMP JUMPDEST JUMPDEST PUSH2 0x5F3 DUP7 DUP3 DUP8 ADD PUSH2 0x564 JUMP JUMPDEST SWAP2 POP POP SWAP3 POP SWAP3 POP SWAP3 JUMP JUMPDEST PUSH2 0x606 DUP2 PUSH2 0x30D JUMP JUMPDEST DUP3 MSTORE POP POP JUMP JUMPDEST PUSH0 PUSH1 0x20 DUP3 ADD SWAP1 POP PUSH2 0x61F PUSH0 DUP4 ADD DUP5 PUSH2 0x5FD JUMP JUMPDEST SWAP3 SWAP2 POP POP JUMP JUMPDEST PUSH2 0x62E DUP2 PUSH2 0x37B JUMP JUMPDEST DUP3 MSTORE POP POP JUMP JUMPDEST PUSH0 DUP2 MLOAD SWAP1 POP SWAP2 SWAP1 POP JUMP JUMPDEST PUSH0 DUP3 DUP3 MSTORE PUSH1 0x20 DUP3 ADD SWAP1 POP SWAP3 SWAP2 POP POP JUMP JUMPDEST PUSH0 JUMPDEST DUP4 DUP2 LT ISZERO PUSH2 0x66B JUMPI DUP1 DUP3 ADD MLOAD DUP2 DUP5 ADD MSTORE PUSH1 0x20 DUP2 ADD SWAP1 POP PUSH2 0x650 JUMP JUMPDEST PUSH0 DUP5 DUP5 ADD MSTORE POP POP POP POP JUMP JUMPDEST PUSH0 PUSH2 0x680 DUP3 PUSH2 0x634 JUMP JUMPDEST PUSH2 0x68A DUP2 DUP6 PUSH2 0x63E JUMP JUMPDEST SWAP4 POP PUSH2 0x69A DUP2 DUP6 PUSH1 0x20 DUP7 ADD PUSH2 0x64E JUMP JUMPDEST PUSH2 0x6A3 DUP2 PUSH2 0x266 JUMP JUMPDEST DUP5 ADD SWAP2 POP POP SWAP3 SWAP2 POP POP JUMP JUMPDEST PUSH0 PUSH1 0x80 DUP3 ADD SWAP1 POP PUSH2 0x6C1 PUSH0 DUP4 ADD DUP8 PUSH2 0x5FD JUMP JUMPDEST PUSH2 0x6CE PUSH1 0x20 DUP4 ADD DUP7 PUSH2 0x625 JUMP JUMPDEST PUSH2 0x6DB PUSH1 0x40 DUP4 ADD DUP6 PUSH2 0x43C JUMP JUMPDEST DUP2 DUP2 SUB PUSH1 0x60 DUP4 ADD MSTORE PUSH2 0x6ED DUP2 DUP5 PUSH2 0x676 JUMP JUMPDEST SWAP1 POP SWAP6 SWAP5 POP POP POP POP POP JUMP JUMPDEST PUSH0 DUP2 MLOAD SWAP1 POP PUSH2 0x706 DUP2 PUSH2 0x4B3 JUMP JUMPDEST SWAP3 SWAP2 POP POP JUMP JUMPDEST PUSH0 DUP1 PUSH1 0x40 DUP4 DUP6 SUB SLT ISZERO PUSH2 0x722 JUMPI PUSH2 0x721 PUSH2 0x25A JUMP JUMPDEST JUMPDEST PUSH0 PUSH2 0x72F DUP6 DUP3 DUP7 ADD PUSH2 0x6F8 JUMP JUMPDEST SWAP3 POP POP PUSH1 0x20 PUSH2 0x740 DUP6 DUP3 DUP7 ADD PUSH2 0x6F8 JUMP JUMPDEST SWAP2 POP POP SWAP3 POP SWAP3 SWAP1 POP JUMP JUMPDEST PUSH0 DUP2 MLOAD SWAP1 POP PUSH2 0x758 DUP2 PUSH2 0x351 JUMP JUMPDEST SWAP3 SWAP2 POP POP JUMP JUMPDEST PUSH2 0x767 DUP2 PUSH2 0x2EE JUMP JUMPDEST DUP2 EQ PUSH2 0x771 JUMPI PUSH0 DUP1 REVERT JUMPDEST POP JUMP JUMPDEST PUSH0 DUP2 MLOAD SWAP1 POP PUSH2 0x782 DUP2 PUSH2 0x75E JUMP JUMPDEST SWAP3 SWAP2 POP POP JUMP JUMPDEST PUSH2 0x791 DUP2 PUSH2 0x45A JUMP JUMPDEST DUP2 EQ PUSH2 0x79B JUMPI PUSH0 DUP1 REVERT JUMPDEST POP JUMP JUMPDEST PUSH0 DUP2 MLOAD SWAP1 POP PUSH2 0x7AC DUP2 PUSH2 0x788 JUMP JUMPDEST SWAP3 SWAP2 POP POP JUMP JUMPDEST PUSH0 DUP1 PUSH0 PUSH1 0x60 DUP5 DUP7 SUB SLT ISZERO PUSH2 0x7C9 JUMPI PUSH2 0x7C8 PUSH2 0x25A JUMP JUMPDEST JUMPDEST PUSH0 PUSH2 0x7D6 DUP7 DUP3 DUP8 ADD PUSH2 0x74A JUMP JUMPDEST SWAP4 POP POP PUSH1 0x20 PUSH2 0x7E7 DUP7 DUP3 DUP8 ADD PUSH2 0x774 JUMP JUMPDEST SWAP3 POP POP PUSH1 0x40 PUSH2 0x7F8 DUP7 DUP3 DUP8 ADD PUSH2 0x79E JUMP JUMPDEST SWAP2 POP POP SWAP3 POP SWAP3 POP SWAP3 JUMP JUMPDEST PUSH0 PUSH2 0x80C DUP3 PUSH2 0x2EE JUMP JUMPDEST SWAP1 POP SWAP2 SWAP1 POP JUMP JUMPDEST PUSH2 0x81C DUP2 PUSH2 0x802 JUMP JUMPDEST DUP2 EQ PUSH2 0x826 JUMPI PUSH0 DUP1 REVERT JUMPDEST POP JUMP JUMPDEST PUSH0 DUP2 MLOAD SWAP1 POP PUSH2 0x837 DUP2 PUSH2 0x813 JUMP JUMPDEST SWAP3 SWAP2 POP POP JUMP JUMPDEST PUSH0 PUSH1 0x20 DUP3 DUP5 SUB SLT ISZERO PUSH2 0x852 JUMPI PUSH2 0x851 PUSH2 0x25A JUMP JUMPDEST JUMPDEST PUSH0 PUSH2 0x85F DUP5 DUP3 DUP6 ADD PUSH2 0x829 JUMP JUMPDEST SWAP2 POP POP SWAP3 SWAP2 POP POP JUMP JUMPDEST PUSH32 0x4E487B7100000000000000000000000000000000000000000000000000000000 PUSH0 MSTORE PUSH1 0x11 PUSH1 0x4 MSTORE PUSH1 0x24 PUSH0 REVERT JUMPDEST PUSH0 PUSH2 0x89F DUP3 PUSH2 0x4AA JUMP JUMPDEST SWAP2 POP PUSH32 0x8000000000000000000000000000000000000000000000000000000000000000 DUP3 SUB PUSH2 0x8D1 JUMPI PUSH2 0x8D0 PUSH2 0x868 JUMP JUMPDEST JUMPDEST DUP2 PUSH0 SUB SWAP1 POP SWAP2 SWAP1 POP JUMP JUMPDEST PUSH0 DUP1 PUSH1 0x40 DUP4 DUP6 SUB SLT ISZERO PUSH2 0x8F1 JUMPI PUSH2 0x8F0 PUSH2 0x25A JUMP JUMPDEST JUMPDEST PUSH0 PUSH2 0x8FE DUP6 DUP3 DUP7 ADD PUSH2 0x774 JUMP JUMPDEST SWAP3 POP POP PUSH1 0x20 PUSH2 0x90F DUP6 DUP3 DUP7 ADD PUSH2 0x79E JUMP JUMPDEST SWAP2 POP POP SWAP3 POP SWAP3 SWAP1 POP JUMP INVALID LOG2 PUSH5 0x6970667358 0x22 SLT KECCAK256 LOG0 DUP15 0xB3 PUSH12 0xAF5CFE8D442A2E464405F330 0x5D OR GASLIMIT REVERT 0xE1 DUP6 DUP16 0xBB 0xC6 0xC ISZERO 0xE 0xA7 0x4A EXTCODESIZE DIV PUSH5 0x736F6C6343 STOP ADDMOD AND STOP CALLER "
				},
				"gasEstimates": {
					"creation": {
						"codeDepositCost": "476600",
						"executionCost": "509",
						"totalCost": "477109"
					},
					"external": {
						"quote((address,uint256,bool))": "infinite",
						"uniswapV3SwapCallback(int256,int256,bytes)": "infinite"
					}
				},
				"methodIdentifiers": {
					"quote((address,uint256,bool))": "5af288b1",
					"uniswapV3SwapCallback(int256,int256,bytes)": "fa461e33"
				}
			},
			"storageLayout": {
				"storage": [],
				"types": null
			},
			"userdoc": {
				"kind": "user",
				"methods": {},
				"version": 1
			}
		}
	}
}