{
	"data": {
		"bytecode": {
			"linkReferences": {},
			"object": "608060405234801561000f575f80fd5b50610bb28061001d5f395ff3fe608060405234801561000f575f80fd5b506004361061004a575f3560e01c80633c8a7d8d1461004e57806380c2c6ef1461007f578063d3487997146100b0578063fa461e33146100cc575b5f80fd5b6100686004803603810190610063919061055c565b6100e8565b60405161007692919061060a565b60405180910390f35b61009960048036038101906100949190610690565b61017b565b6040516100a792919061072c565b60405180910390f35b6100ca60048036038101906100c59190610753565b61020b565b005b6100e660048036038101906100e191906107ee565b610307565b005b5f808773ffffffffffffffffffffffffffffffffffffffff16633c8a7d8d3389898989896040518763ffffffff1660e01b815260040161012d969594939291906108e6565b60408051808303815f875af1158015610148573d5f803e3d5ffd5b505050506040513d601f19601f8201168201806040525081019061016c9190610954565b91509150965096945050505050565b5f808673ffffffffffffffffffffffffffffffffffffffff166380c2c6ef33888888886040518663ffffffff1660e01b81526004016101be9594939291906109a1565b60408051808303815f875af11580156101d9573d5f803e3d5ffd5b505050506040513d601f19601f820116820180604052508101906101fd9190610a01565b915091509550959350505050565b5f828281019061021b9190610b1c565b9050805f015173ffffffffffffffffffffffffffffffffffffffff166323b872dd826040015133886040518463ffffffff1660e01b815260040161026193929190610b47565b5f604051808303815f87803b158015610278575f80fd5b505af115801561028a573d5f803e3d5ffd5b50505050806020015173ffffffffffffffffffffffffffffffffffffffff166323b872dd826040015133876040518463ffffffff1660e01b81526004016102d393929190610b47565b5f604051808303815f87803b1580156102ea575f80fd5b505af11580156102fc573d5f803e3d5ffd5b505050505050505050565b5f82828101906103179190610b1c565b90505f85131561039357805f015173ffffffffffffffffffffffffffffffffffffffff166323b872dd826040015133886040518463ffffffff1660e01b815260040161036593929190610b47565b5f604051808303815f87803b15801561037c575f80fd5b505af115801561038e573d5f803e3d5ffd5b505050505b5f84131561040e57806020015173ffffffffffffffffffffffffffffffffffffffff166323b872dd826040015133876040518463ffffffff1660e01b81526004016103e093929190610b47565b5f604051808303815f87803b1580156103f7575f80fd5b505af1158015610409573d5f803e3d5ffd5b505050505b5050505050565b5f604051905090565b5f80fd5b5f80fd5b5f73ffffffffffffffffffffffffffffffffffffffff82169050919050565b5f61044f82610426565b9050919050565b61045f81610445565b8114610469575f80fd5b50565b5f8135905061047a81610456565b92915050565b5f8160020b9050919050565b61049581610480565b811461049f575f80fd5b50565b5f813590506104b08161048c565b92915050565b5f6fffffffffffffffffffffffffffffffff82169050919050565b6104da816104b6565b81146104e4575f80fd5b50565b5f813590506104f5816104d1565b92915050565b5f80fd5b5f80fd5b5f80fd5b5f8083601f84011261051c5761051b6104fb565b5b8235905067ffffffffffffffff811115610539576105386104ff565b5b60208301915083600182028301111561055557610554610503565b5b9250929050565b5f805f805f8060a087890312156105765761057561041e565b5b5f61058389828a0161046c565b965050602061059489828a016104a2565b95505060406105a589828a016104a2565b94505060606105b689828a016104e7565b935050608087013567ffffffffffffffff8111156105d7576105d6610422565b5b6105e389828a01610507565b92509250509295509295509295565b5f819050919050565b610604816105f2565b82525050565b5f60408201905061061d5f8301856105fb565b61062a60208301846105fb565b9392505050565b5f8115159050919050565b61064581610631565b811461064f575f80fd5b50565b5f813590506106608161063c565b92915050565b61066f816105f2565b8114610679575f80fd5b50565b5f8135905061068a81610666565b92915050565b5f805f805f608086880312156106a9576106a861041e565b5b5f6106b68882890161046c565b95505060206106c788828901610652565b94505060406106d88882890161067c565b935050606086013567ffffffffffffffff8111156106f9576106f8610422565b5b61070588828901610507565b92509250509295509295909350565b5f819050919050565b61072681610714565b82525050565b5f60408201905061073f5f83018561071d565b61074c602083018461071d565b9392505050565b5f805f806060858703121561076b5761076a61041e565b5b5f6107788782880161067c565b94505060206107898782880161067c565b935050604085013567ffffffffffffffff8111156107aa576107a9610422565b5b6107b687828801610507565b925092505092959194509250565b6107cd81610714565b81146107d7575f80fd5b50565b5f813590506107e8816107c4565b92915050565b5f805f80606085870312156108065761080561041e565b5b5f610813878288016107da565b9450506020610824878288016107da565b935050604085013567ffffffffffffffff81111561084557610844610422565b5b61085187828801610507565b925092505092959194509250565b61086881610445565b82525050565b61087781610480565b82525050565b610886816104b6565b82525050565b5f82825260208201905092915050565b828183375f83830152505050565b5f601f19601f8301169050919050565b5f6108c5838561088c565b93506108d283858461089c565b6108db836108aa565b840190509392505050565b5f60a0820190506108f95f83018961085f565b610906602083018861086e565b610913604083018761086e565b610920606083018661087d565b81810360808301526109338184866108ba565b9050979650505050505050565b5f8151905061094e81610666565b92915050565b5f806040838503121561096a5761096961041e565b5b5f61097785828601610940565b925050602061098885828601610940565b9150509250929050565b61099b81610631565b82525050565b5f6080820190506109b45f83018861085f565b6109c16020830187610992565b6109ce60408301866105fb565b81810360608301526109e18184866108ba565b90509695505050505050565b5f815190506109fb816107c4565b92915050565b5f8060408385031215610a1757610a1661041e565b5b5f610a24858286016109ed565b9250506020610a35858286016109ed565b9150509250929050565b5f80fd5b7f4e487b71000000000000000000000000000000000000000000000000000000005f52604160045260245ffd5b610a79826108aa565b810181811067ffffffffffffffff82111715610a9857610a97610a43565b5b80604052505050565b5f610aaa610415565b9050610ab68282610a70565b919050565b5f60608284031215610ad057610acf610a3f565b5b610ada6060610aa1565b90505f610ae98482850161046c565b5f830152506020610afc8482850161046c565b6020830152506040610b108482850161046c565b60408301525092915050565b5f60608284031215610b3157610b3061041e565b5b5f610b3e84828501610abb565b91505092915050565b5f606082019050610b5a5f83018661085f565b610b67602083018561085f565b610b7460408301846105fb565b94935050505056fea26469706673582212201ea498be35a2676b033d46d87bd76be1165addad3cbe92a340206a2743a298e764736f6c63430008160033",
			"opcodes": "PUSH1 0x80 PUSH1 0x40 MSTORE CALLVALUE DUP1 ISZERO PUSH2 0xF JUMPI PUSH0 DUP1 REVERT JUMPDEST POP PUSH2 0xBB2 DUP1 PUSH2 0x1D PUSH0 CODECOPY PUSH0 RETURN INVALID PUSH1 0x80 PUSH1 0x40 MSTORE CALLVALUE DUP1 ISZERO PUSH2 0xF JUMPI PUSH0 DUP1 REVERT JUMPDEST POP PUSH1 0x4 CALLDATASIZE LT PUSH2 0x4A JUMPI PUSH0 CALLDATALOAD PUSH1 0xE0 SHR DUP1 PUSH4 0x3C8A7D8D EQ PUSH2 0x4E JUMPI DUP1 PUSH4 0x80C2C6EF EQ PUSH2 0x7F JUMPI DUP1 PUSH4 0xD3487997 EQ PUSH2 0xB0 JUMPI DUP1 PUSH4 0xFA461E33 EQ PUSH2 0xCC JUMPI JUMPDEST PUSH0 DUP1 REVERT JUMPDEST PUSH2 0x68 PUSH1 0x4 DUP1 CALLDATASIZE SUB DUP2 ADD SWAP1 PUSH2 0x63 SWAP2 SWAP1 PUSH2 0x55C JUMP JUMPDEST PUSH2 0xE8 JUMP JUMPDEST PUSH1 0x40 MLOAD PUSH2 0x76 SWAP3 SWAP2 SWAP1 PUSH2 0x60A JUMP JUMPDEST PUSH1 0x40 MLOAD DUP1 SWAP2 SUB SWAP1 RETURN JUMPDEST PUSH2 0x99 PUSH1 0x4 DUP1 CALLDATASIZE SUB DUP2 ADD SWAP1 PUSH2 0x94 SWAP2 SWAP1 PUSH2 0x690 JUMP JUMPDEST PUSH2 0x17B JUMP JUMPDEST PUSH1 0x40 MLOAD PUSH2 0xA7 SWAP3 SWAP2 SWAP1 PUSH2 0x72C JUMP JUMPDEST PUSH1 0x40 MLOAD DUP1 SWAP2 SUB SWAP1 RETURN JUMPDEST PUSH2 0xCA PUSH1 0x4 DUP1 CALLDATASIZE SUB DUP2 ADD SWAP1 PUSH2 0xC5 SWAP2 SWAP1 PUSH2 0x753 JUMP JUMPDEST PUSH2 0x20B JUMP JUMPDEST STOP JUMPDEST PUSH2 0xE6 PUSH1 0x4 DUP1 CALLDATASIZE SUB DUP2 ADD SWAP1 PUSH2 0xE1 SWAP2 SWAP1 PUSH2 0x7EE JUMP JUMPDEST PUSH2 0x307 JUMP JUMPDEST STOP JUMPDEST PUSH0 DUP1 DUP8 PUSH20 0xFFFFFFFFFFFFFFFFFFFFFFFFFFFFFFFFFFFFFFFF AND PUSH4 0x3C8A7D8D CALLER DUP10 DUP10 DUP10 DUP10 DUP10 PUSH1 0x40 MLOAD DUP8 PUSH4 0xFFFFFFFF AND PUSH1 0xE0 SHL DUP2 MSTORE PUSH1 0x4 ADD PUSH2 0x12D SWAP7 SWAP6 SWAP5 SWAP4 SWAP3 SWAP2 SWAP1 PUSH2 0x8E6 JUMP JUMPDEST PUSH1 0x40 DUP1 MLOAD DUP1 DUP4 SUB DUP2 PUSH0 DUP8 GAS CALL ISZERO DUP1 ISZERO PUSH2 0x148 JUMPI RETURNDATASIZE PUSH0 DUP1 RETURNDATACOPY RETURNDATASIZE PUSH0 REVERT JUMPDEST POP POP POP POP PUSH1 0x40 MLOAD RETURNDATASIZE PUSH1 0x1F NOT PUSH1 0x1F DUP3 ADD AND DUP3 ADD DUP1 PUSH1 0x40 MSTORE POP DUP2 ADD SWAP1 PUSH2 0x16C SWAP2 SWAP1 PUSH2 0x954 JUMP JUMPDEST SWAP2 POP SWAP2 POP SWAP7 POP SWAP7 SWAP5 POP POP POP POP POP JUMP JUMPDEST PUSH0 DUP1 DUP7 PUSH20 0xFFFFFFFFFFFFFFFFFFFFFFFFFFFFFFFFFFFFFFFF AND PUSH4 0x80C2C6EF CALLER DUP9 DUP9 DUP9 DUP9 PUSH1 0x40 MLOAD DUP7 PUSH4 0xFFFFFFFF AND PUSH1 0xE0 SHL DUP2 MSTORE PUSH1 0x4 ADD PUSH2 0x1BE SWAP6 SWAP5 SWAP4 SWAP3 SWAP2 SWAP1 PUSH2 0x9A1 JUMP JUMPDEST PUSH1 0x40 DUP1 MLOAD DUP1 DUP4 SUB DUP2 PUSH0 DUP8 GAS CALL ISZERO DUP1 ISZERO PUSH2 0x1D9 JUMPI RETURNDATASIZE PUSH0 DUP1 RETURNDATACOPY RETURNDATASIZE PUSH0 REVERT JUMPDEST POP POP POP POP PUSH1 0x40 MLOAD RETURNDATASIZE PUSH1 0x1F NOT PUSH1 0x1F DUP3 ADD AND DUP3 ADD DUP1 PUSH1 0x40 MSTORE POP DUP2 ADD SWAP1 PUSH2 0x1FD SWAP2 SWAP1 PUSH2 0xA01 JUMP JUMPDEST SWAP2 POP SWAP2 POP SWAP6 POP SWAP6 SWAP4 POP POP POP POP JUMP JUMPDEST PUSH0 DUP3 DUP3 DUP2 ADD SWAP1 PUSH2 0x21B SWAP2 SWAP1 PUSH2 0xB1C JUMP JUMPDEST SWAP1 POP DUP1 PUSH0 ADD MLOAD PUSH20 0xFFFFFFFFFFFFFFFFFFFFFFFFFFFFFFFFFFFFFFFF AND PUSH4 0x23B872DD DUP3 PUSH1 0x40 ADD MLOAD CALLER DUP9 PUSH1 0x40 MLOAD DUP5 PUSH4 0xFFFFFFFF AND PUSH1 0xE0 SHL DUP2 MSTORE PUSH1 0x4 ADD PUSH2 0x261 SWAP4 SWAP3 SWAP2 SWAP1 PUSH2 0xB47 JUMP JUMPDEST PUSH0 PUSH1 0x40 MLOAD DUP1 DUP4 SUB DUP2 PUSH0 DUP8 DUP1 EXTCODESIZE ISZERO DUP1 ISZERO PUSH2 0x278 JUMPI PUSH0 DUP1 REVERT JUMPDEST POP GAS CALL ISZERO DUP1 ISZERO PUSH2 0x28A JUMPI RETURNDATASIZE PUSH0 DUP1 RETURNDATACOPY RETURNDATASIZE PUSH0 REVERT JUMPDEST POP POP POP POP DUP1 PUSH1 0x20 ADD MLOAD PUSH20 0xFFFFFFFFFFFFFFFFFFFFFFFFFFFFFFFFFFFFFFFF AND PUSH4 0x23B872DD DUP3 PUSH1 0x40 ADD MLOAD CALLER DUP8 PUSH1 0x40 MLOAD DUP5 PUSH4 0xFFFFFFFF AND PUSH1 0xE0 SHL DUP2 MSTORE PUSH1 0x4 ADD PUSH2 0x2D3 SWAP4 SWAP3 SWAP2 SWAP1 PUSH2 0xB47 JUMP JUMPDEST PUSH0 PUSH1 0x40 MLOAD DUP1 DUP4 SUB DUP2 PUSH0 DUP8 DUP1 EXTCODESIZE ISZERO DUP1 ISZERO PUSH2 0x2EA JUMPI PUSH0 DUP1 REVERT JUMPDEST POP GAS CALL ISZERO DUP1 ISZERO PUSH2 0x2FC JUMPI RETURNDATASIZE PUSH0 DUP1 RETURNDATACOPY RETURNDATASIZE PUSH0 REVERT JUMPDEST POP POP POP POP POP POP POP POP POP JUMP JUMPDEST PUSH0 DUP3 DUP3 DUP2 ADD SWAP1 PUSH2 0x317 SWAP2 SWAP1 PUSH2 0xB1C JUMP JUMPDEST SWAP1 POP PUSH0 DUP6 SGT ISZERO PUSH2 0x393 JUMPI DUP1 PUSH0 ADD MLOAD PUSH20 0xFFFFFFFFFFFFFFFFFFFFFFFFFFFFFFFFFFFFFFFF AND PUSH4 0x23B872DD DUP3 PUSH1 0x40 ADD MLOAD CALLER DUP9 PUSH1 0x40 MLOAD DUP5 PUSH4 0xFFFFFFFF AND PUSH1 0xE0 SHL DUP2 MSTORE PUSH1 0x4 ADD PUSH2 0x365 SWAP4 SWAP3 SWAP2 SWAP1 PUSH2 0xB47 JUMP JUMPDEST PUSH0 PUSH1 0x40 MLOAD DUP1 DUP4 SUB DUP2 PUSH0 DUP8 DUP1 EXTCODESIZE ISZERO DUP1 ISZERO PUSH2 0x37C JUMPI PUSH0 DUP1 REVERT JUMPDEST POP GAS CALL ISZERO DUP1 ISZERO PUSH2 0x38E JUMPI RETURNDATASIZE PUSH0 DUP1 RETURNDATACOPY RETURNDATASIZE PUSH0 REVERT JUMPDEST POP POP POP POP JUMPDEST PUSH0 DUP5 SGT ISZERO PUSH2 0x40E JUMPI DUP1 PUSH1 0x20 ADD MLOAD PUSH20 0xFFFFFFFFFFFFFFFFFFFFFFFFFFFFFFFFFFFFFFFF AND PUSH4 0x23B872DD DUP3 PUSH1 0x40 ADD MLOAD CALLER DUP8 PUSH1 0x40 MLOAD DUP5 PUSH4 0xFFFFFFFF AND PUSH1 0xE0 SHL DUP2 MSTORE PUSH1 0x4 ADD PUSH2 0x3E0 SWAP4 SWAP3 SWAP2 SWAP1 PUSH2 0xB47 JUMP JUMPDEST PUSH0 PUSH1 0x40 MLOAD DUP1 DUP4 SUB DUP2 PUSH0 DUP8 DUP1 EXTCODESIZE ISZERO DUP1 ISZERO PUSH2 0x3F7 JUMPI PUSH0 DUP1 REVERT JUMPDEST POP GAS CALL ISZERO DUP1 ISZERO PUSH2 0x409 JUMPI RETURNDATASIZE PUSH0 DUP1 RETURNDATACOPY RETURNDATASIZE PUSH0 REVERT JUMPDEST POP POP POP POP JUMPDEST POP POP POP POP POP JUMP JUMPDEST PUSH0 PUSH1 0x40 MLOAD SWAP1 POP SWAP1 JUMP JUMPDEST PUSH0 DUP1 REVERT JUMPDEST PUSH0 DUP1 REVERT JUMPDEST PUSH0 PUSH20 0xFFFFFFFFFFFFFFFFFFFFFFFFFFFFFFFFFFFFFFFF DUP3 AND SWAP1 POP SWAP2 SWAP1 POP JUMP JUMPDEST PUSH0 PUSH2 0x44F DUP3 PUSH2 0x426 JUMP JUMPDEST SWAP1 POP SWAP2 SWAP1 POP JUMP JUMPDEST PUSH2 0x45F DUP2 PUSH2 0x445 JUMP JUMPDEST DUP2 EQ PUSH2 0x469 JUMPI PUSH0 DUP1 REVERT JUMPDEST POP JUMP JUMPDEST PUSH0 DUP2 CALLDATALOAD SWAP1 POP PUSH2 0x47A DUP2 PUSH2 0x456 JUMP JUMPDEST SWAP3 SWAP2 POP POP JUMP JUMPDEST PUSH0 DUP2 PUSH1 0x2 SIGNEXTEND SWAP1 POP SWAP2 SWAP1 POP JUMP JUMPDEST PUSH2 0x495 DUP2 PUSH2 0x480 JUMP JUMPDEST DUP2 EQ PUSH2 0x49F JUMPI PUSH0 DUP1 REVERT JUMPDEST POP JUMP JUMPDEST PUSH0 DUP2 CALLDATALOAD SWAP1 POP PUSH2 0x4B0 DUP2 PUSH2 0x48C JUMP JUMPDEST SWAP3 SWAP2 POP POP JUMP JUMPDEST PUSH0 PUSH16 0xFFFFFFFFFFFFFFFFFFFFFFFFFFFFFFFF DUP3 AND SWAP1 POP SWAP2 SWAP1 POP JUMP JUMPDEST PUSH2 0x4DA DUP2 PUSH2 0x4B6 JUMP JUMPDEST DUP2 EQ PUSH2 0x4E4 JUMPI PUSH0 DUP1 REVERT JUMPDEST POP JUMP JUMPDEST PUSH0 DUP2 CALLDATALOAD SWAP1 POP PUSH2 0x4F5 DUP2 PUSH2 0x4D1 JUMP JUMPDEST SWAP3 SWAP2 POP POP JUMP JUMPDEST PUSH0 DUP1 REVERT JUMPDEST PUSH0 DUP1 REVERT JUMPDEST PUSH0 DUP1 REVERT JUMPDEST PUSH0 DUP1 DUP4 PUSH1 0x1F DUP5 ADD SLT PUSH2 0x51C JUMPI PUSH2 0x51B PUSH2 0x4FB JUMP JUMPDEST JUMPDEST DUP3 CALLDATALOAD SWAP1 POP PUSH8 0xFFFFFFFFFFFFFFFF DUP2 GT ISZERO PUSH2 0x539 JUMPI PUSH2 0x538 PUSH2 0x4FF JUMP JUMPDEST JUMPDEST PUSH1 0x20 DUP4 ADD SWAP2 POP DUP4 PUSH1 0x1 DUP3 MUL DUP4 ADD GT ISZERO PUSH2 0x555 JUMPI PUSH2 0x554 PUSH2 0x503 JUMP JUMPDEST JUMPDEST SWAP3 POP SWAP3 SWAP1 POP JUMP JUMPDEST PUSH0 DUP1 PUSH0 DUP1 PUSH0 DUP1 PUSH1 0xA0 DUP8 DUP10 SUB SLT ISZERO PUSH2 0x576 JUMPI PUSH2 0x575 PUSH2 0x41E JUMP JUMPDEST JUMPDEST PUSH0 PUSH2 0x583 DUP10 DUP3 DUP11 ADD PUSH2 0x46C JUMP JUMPDEST SWAP7 POP POP PUSH1 0x20 PUSH2 0x594 DUP10 DUP3 DUP11 ADD PUSH2 0x4A2 JUMP JUMPDEST SWAP6 POP POP PUSH1 0x40 PUSH2 0x5A5 DUP10 DUP3 DUP11 ADD PUSH2 0x4A2 JUMP JUMPDEST SWAP5 POP POP PUSH1 0x60 PUSH2 0x5B6 DUP10 DUP3 DUP11 ADD PUSH2 0x4E7 JUMP JUMPDEST SWAP4 POP POP PUSH1 0x80 DUP8 ADD CALLDATALOAD PUSH8 0xFFFFFFFFFFFFFFFF DUP2 GT ISZERO PUSH2 0x5D7 JUMPI PUSH2 0x5D6 PUSH2 0x422 JUMP JUMPDEST JUMPDEST PUSH2 0x5E3 DUP10 DUP3 DUP11 ADD PUSH2 0x507 JUMP JUMPDEST SWAP3 POP SWAP3 POP POP SWAP3 SWAP6 POP SWAP3 SWAP6 POP SWAP3 SWAP6 JUMP JUMPDEST PUSH0 DUP2 SWAP1 POP SWAP2 SWAP1 POP JUMP JUMPDEST PUSH2 0x604 DUP2 PUSH2 0x5F2 JUMP JUMPDEST DUP3 MSTORE POP POP JUMP JUMPDEST PUSH0 PUSH1 0x40 DUP3 ADD SWAP1 POP PUSH2 0x61D PUSH0 DUP4 ADD DUP6 PUSH2 0x5FB JUMP JUMPDEST PUSH2 0x62A PUSH1 0x20 DUP4 ADD DUP5 PUSH2 0x5FB JUMP JUMPDEST SWAP4 SWAP3 POP POP POP JUMP JUMPDEST PUSH0 DUP2 ISZERO ISZERO SWAP1 POP SWAP2 SWAP1 POP JUMP JUMPDEST PUSH2 0x645 DUP2 PUSH2 0x631 JUMP JUMPDEST DUP2 EQ PUSH2 0x64F JUMPI PUSH0 DUP1 REVERT JUMPDEST POP JUMP JUMPDEST PUSH0 DUP2 CALLDATALOAD SWAP1 POP PUSH2 0x660 DUP2 PUSH2 0x63C JUMP JUMPDEST SWAP3 SWAP2 POP POP JUMP JUMPDEST PUSH2 0x66F DUP2 PUSH2 0x5F2 JUMP JUMPDEST DUP2 EQ PUSH2 0x679 JUMPI PUSH0 DUP1 REVERT JUMPDEST POP JUMP JUMPDEST PUSH0 DUP2 CALLDATALOAD SWAP1 POP PUSH2 0x68A DUP2 PUSH2 0x666 JUMP JUMPDEST SWAP3 SWAP2 POP POP JUMP JUMPDEST PUSH0 DUP1 PUSH0 DUP1 PUSH0 PUSH1 0x80 DUP7 DUP9 SUB SLT ISZERO PUSH2 0x6A9 JUMPI PUSH2 0x6A8 PUSH2 0x41E JUMP JUMPDEST JUMPDEST PUSH0 PUSH2 0x6B6 DUP9 DUP3 DUP10 ADD PUSH2 0x46C JUMP JUMPDEST SWAP6 POP POP PUSH1 0x20 PUSH2 0x6C7 DUP9 DUP3 DUP10 ADD PUSH2 0x652 JUMP JUMPDEST SWAP5 POP POP PUSH1 0x40 PUSH2 0x6D8 DUP9 DUP3 DUP10 ADD PUSH2 0x67C JUMP JUMPDEST SWAP4 POP POP PUSH1 0x60 DUP7 ADD CALLDATALOAD PUSH8 0xFFFFFFFFFFFFFFFF DUP2 GT ISZERO PUSH2 0x6F9 JUMPI PUSH2 0x6F8 PUSH2 0x422 JUMP JUMPDEST JUMPDEST PUSH2 0x705 DUP9 DUP3 DUP10 ADD PUSH2 0x507 JUMP JUMPDEST SWAP3 POP SWAP3 POP POP SWAP3 SWAP6 POP SWAP3 SWAP6 SWAP1 SWAP4 POP JUMP JUMPDEST PUSH0 DUP2 SWAP1 POP SWAP2 SWAP1 POP JUMP JUMPDEST PUSH2 0x726 DUP2 PUSH2 0x714 JUMP JUMPDEST DUP3 MSTORE POP POP JUMP JUMPDEST PUSH0 PUSH1 0x40 DUP3 ADD SWAP1 POP PUSH2 0x73F PUSH0 DUP4 ADD DUP6 PUSH2 0x71D JUMP JUMPDEST PUSH2 0x74C PUSH1 0x20 DUP4 ADD DUP5 PUSH2 0x71D JUMP JUMPDEST SWAP4 SWAP3 POP POP POP JUMP JUMPDEST PUSH0 DUP1 PUSH0 DUP1 PUSH1 0x60 DUP6 DUP8 SUB SLT ISZERO PUSH2 0x76B JUMPI PUSH2 0x76A PUSH2 0x41E JUMP JUMPDEST JUMPDEST PUSH0 PUSH2 0x778 DUP8 DUP3 DUP9 ADD PUSH2 0x67C JUMP JUMPDEST SWAP5 POP POP PUSH1 0x20 PUSH2 0x789 DUP8 DUP3 DUP9 ADD PUSH2 0x67C JUMP JUMPDEST SWAP4 POP POP PUSH1 0x40 DUP6 ADD CALLDATALOAD PUSH8 0xFFFFFFFFFFFFFFFF DUP2 GT ISZERO PUSH2 0x7AA JUMPI PUSH2 0x7A9 PUSH2 0x422 JUMP JUMPDEST JUMPDEST PUSH2 0x7B6 DUP8 DUP3 DUP9 ADD PUSH2 0x507 JUMP JUMPDEST SWAP3 POP SWAP3 POP POP SWAP3 SWAP6 SWAP2 SWAP5 POP SWAP3 POP JUMP JUMPDEST PUSH2 0x7CD DUP2 PUSH2 0x714 JUMP JUMPDEST DUP2 EQ PUSH2 0x7D7 JUMPI PUSH0 DUP1 REVERT JUMPDEST POP JUMP JUMPDEST PUSH0 DUP2 CALLDATALOAD SWAP1 POP PUSH2 0x7E8 DUP2 PUSH2 0x7C4 JUMP JUMPDEST SWAP3 SWAP2 POP POP JUMP JUMPDEST PUSH0 DUP1 PUSH0 DUP1 PUSH1 0x60 DUP6 DUP8 SUB SLT ISZERO PUSH2 0x806 JUMPI PUSH2 0x805 PUSH2 0x41E JUMP JUMPDEST JUMPDEST PUSH0 PUSH2 0x813 DUP8 DUP3 DUP9 ADD PUSH2 0x7DA JUMP JUMPDEST SWAP5 POP POP PUSH1 0x20 PUSH2 0x824 DUP8 DUP3 DUP9 ADD PUSH2 0x7DA JUMP JUMPDEST SWAP4 POP POP PUSH1 0x40 DUP6 ADD CALLDATALOAD PUSH8 0xFFFFFFFFFFFFFFFF DUP2 GT ISZERO PUSH2 0x845 JUMPI PUSH2 0x844 PUSH2 0x422 JUMP JUMPDEST JUMPDEST PUSH2 0x851 DUP8 DUP3 DUP9 ADD PUSH2 0x507 JUMP JUMPDEST SWAP3 POP SWAP3 POP POP SWAP3 SWAP6 SWAP2 SWAP5 POP SWAP3 POP JUMP JUMPDEST PUSH2 0x868 DUP2 PUSH2 0x445 JUMP JUMPDEST DUP3 MSTORE POP POP JUMP JUMPDEST PUSH2 0x877 DUP2 PUSH2 0x480 JUMP JUMPDEST DUP3 MSTORE POP POP JUMP JUMPDEST PUSH2 0x886 DUP2 PUSH2 0x4B6 JUMP JUMPDEST DUP3 MSTORE POP POP JUMP JUMPDEST PUSH0 DUP3 DUP3 MSTORE PUSH1 0x20 DUP3 ADD SWAP1 POP SWAP3 SWAP2 POP POP JUMP JUMPDEST DUP3 DUP2 DUP4 CALLDATACOPY PUSH0 DUP4 DUP4 ADD MSTORE POP POP POP JUMP JUMPDEST PUSH0 PUSH1 0x1F NOT PUSH1 0x1F DUP4 ADD AND SWAP1 POP SWAP2 SWAP1 POP JUMP JUMPDEST PUSH0 PUSH2 0x8C5 DUP4 DUP6 PUSH2 0x88C JUMP JUMPDEST SWAP4 POP PUSH2 0x8D2 DUP4 DUP6 DUP5 PUSH2 0x89C JUMP JUMPDEST PUSH2 0x8DB DUP4 PUSH2 0x8AA JUMP JUMPDEST DUP5 ADD SWAP1 POP SWAP4 SWAP3 POP POP POP JUMP JUMPDEST PUSH0 PUSH1 0xA0 DUP3 ADD SWAP1 POP PUSH2 0x8F9 PUSH0 DUP4 ADD DUP10 PUSH2 0x85F JUMP JUMPDEST PUSH2 0x906 PUSH1 0x20 DUP4 ADD DUP9 PUSH2 0x86E JUMP JUMPDEST PUSH2 0x913 PUSH1 0x40 DUP4 ADD DUP8 PUSH2 0x86E JUMP JUMPDEST PUSH2 0x920 PUSH1 0x60 DUP4 ADD DUP7 PUSH2 0x87D JUMP JUMPDEST DUP2 DUP2 SUB PUSH1 0x80 DUP4 ADD MSTORE PUSH2 0x933 DUP2 DUP5 DUP7 PUSH2 0x8BA JUMP JUMPDEST SWAP1 POP SWAP8 SWAP7 POP POP POP POP POP POP POP JUMP JUMPDEST PUSH0 DUP2 MLOAD SWAP1 POP PUSH2 0x94E DUP2 PUSH2 0x666 JUMP JUMPDEST SWAP3 SWAP2 POP POP JUMP JUMPDEST PUSH0 DUP1 PUSH1 0x40 DUP4 DUP6 SUB SLT ISZERO PUSH2 0x96A JUMPI PUSH2 0x969 PUSH2 0x41E JUMP JUMPDEST JUMPDEST PUSH0 PUSH2 0x977 DUP6 DUP3 DUP7 ADD PUSH2 0x940 JUMP JUMPDEST SWAP3 POP POP PUSH1 0x20 PUSH2 0x988 DUP6 DUP3 DUP7 ADD PUSH2 0x940 JUMP JUMPDEST SWAP2 POP POP SWAP3 POP SWAP3 SWAP1 POP JUMP JUMPDEST PUSH2 0x99B DUP2 PUSH2 0x631 JUMP JUMPDEST DUP3 MSTORE POP POP JUMP JUMPDEST PUSH0 PUSH1 0x80 DUP3 ADD SWAP1 POP PUSH2 0x9B4 PUSH0 DUP4 ADD DUP9 PUSH2 0x85F JUMP JUMPDEST PUSH2 0x9C1 PUSH1 0x20 DUP4 ADD DUP8 PUSH2 0x992 JUMP JUMPDEST PUSH2 0x9CE PUSH1 0x40 DUP4 ADD DUP7 PUSH2 0x5FB JUMP JUMPDEST DUP2 DUP2 SUB PUSH1 0x60 DUP4 ADD MSTORE PUSH2 0x9E1 DUP2 DUP5 DUP7 PUSH2 0x8BA JUMP JUMPDEST SWAP1 POP SWAP7 SWAP6 POP POP POP POP POP POP JUMP JUMPDEST PUSH0 DUP2 MLOAD SWAP1 POP PUSH2 0x9FB DUP2 PUSH2 0x7C4 JUMP JUMPDEST SWAP3 SWAP2 POP POP JUMP JUMPDEST PUSH0 DUP1 PUSH1 0x40 DUP4 DUP6 SUB SLT ISZERO PUSH2 0xA17 JUMPI PUSH2 0xA16 PUSH2 0x41E JUMP JUMPDEST JUMPDEST PUSH0 PUSH2 0xA24 DUP6 DUP3 DUP7 ADD PUSH2 0x9ED JUMP JUMPDEST SWAP3 POP POP PUSH1 0x20 PUSH2 0xA35 DUP6 DUP3 DUP7 ADD PUSH2 0x9ED JUMP JUMPDEST SWAP2 POP POP SWAP3 POP SWAP3 SWAP1 POP JUMP JUMPDEST PUSH0 DUP1 REVERT JUMPDEST PUSH32 0x4E487B7100000000000000000000000000000000000000000000000000000000 PUSH0 MSTORE PUSH1 0x41 PUSH1 0x4 MSTORE PUSH1 0x24 PUSH0 REVERT JUMPDEST PUSH2 0xA79 DUP3 PUSH2 0x8AA JUMP JUMPDEST DUP2 ADD DUP2 DUP2 LT PUSH8 0xFFFFFFFFFFFFFFFF DUP3 GT OR ISZERO PUSH2 0xA98 JUMPI PUSH2 0xA97 PUSH2 0xA43 JUMP JUMPDEST JUMPDEST DUP1 PUSH1 0x40 MSTORE POP POP POP JUMP JUMPDEST PUSH0 PUSH2 0xAAA PUSH2 0x415 JUMP JUMPDEST SWAP1 POP PUSH2 0xAB6 DUP3 DUP3 PUSH2 0xA70 JUMP JUMPDEST SWAP2 SWAP1 POP JUMP JUMPDEST PUSH0 PUSH1 0x60 DUP3 DUP5 SUB SLT ISZERO PUSH2 0xAD0 JUMPI PUSH2 0xACF PUSH2 0xA3F JUMP JUMPDEST JUMPDEST PUSH2 0xADA PUSH1 0x60 PUSH2 0xAA1 JUMP JUMPDEST SWAP1 POP PUSH0 PUSH2 0xAE9 DUP5 DUP3 DUP6 ADD PUSH2 0x46C JUMP JUMPDEST PUSH0 DUP4 ADD MSTORE POP PUSH1 0x20 PUSH2 0xAFC DUP5 DUP3 DUP6 ADD PUSH2 0x46C JUMP JUMPDEST PUSH1 0x20 DUP4 ADD MSTORE POP PUSH1 0x40 PUSH2 0xB10 DUP5 DUP3 DUP6 ADD PUSH2 0x46C JUMP JUMPDEST PUSH1 0x40 DUP4 ADD MSTORE POP SWAP3 SWAP2 POP POP JUMP JUMPDEST PUSH0 PUSH1 0x60 DUP3 DUP5 SUB SLT ISZERO PUSH2 0xB31 JUMPI PUSH2 0xB30 PUSH2 0x41E JUMP JUMPDEST JUMPDEST PUSH0 PUSH2 0xB3E DUP5 DUP3 DUP6 ADD PUSH2 0xABB JUMP JUMPDEST SWAP2 POP POP SWAP3 SWAP2 POP POP JUMP JUMPDEST PUSH0 PUSH1 0x60 DUP3 ADD SWAP1 POP PUSH2 0xB5A PUSH0 DUP4 ADD DUP7 PUSH2 0x85F JUMP JUMPDEST PUSH2 0xB67 PUSH1 0x20 DUP4 ADD DUP6 PUSH2 0x85F JUMP JUMPDEST PUSH2 0xB74 PUSH1 0x40 DUP4 ADD DUP5 PUSH2 0x5FB JUMP JUMPDEST SWAP5 SWAP4 POP POP POP POP JUMP INVALID LOG2 PUSH5 0x6970667358 0x22 SLT KECCAK256 0x1E LOG4 SWAP9 0xBE CALLDATALOAD LOG2 PUSH8 0x6B033D46D87BD76B 0xE1 AND GAS 0xDD 0xAD EXTCODECOPY 0xBE SWAP3 LOG3 BLOCKHASH KECCAK256 PUSH11 0x2743A298E764736F6C6343 STOP ADDMOD AND STOP CALLER "
		},
		"gasEstimates": {
			"creation": {
				"codeDepositCost": "598800",
				"executionCost": "630",
				"totalCost": "599430"
			},
			"external": {
				"mint(address,int24,int24,uint128,bytes)": "infinite",
				"swap(address,bool,uint256,bytes)": "infinite",
				"uniswapV3MintCallback(uint256,uint256,bytes)": "infinite",
				"uniswapV3SwapCallback(int256,int256,bytes)": "infinite"
			}
		},
		"methodIdentifiers": {
			"mint(address,int24,int24,uint128,bytes)": "3c8a7d8d",
			"swap(address,bool,uint256,bytes)": "80c2c6ef",
			"uniswapV3MintCallback(uint256,uint256,bytes)": "d3487997",
			"uniswapV3SwapCallback(int256,int256,bytes)": "fa461e33"
		}
	},
	"abi": [
		{
			"inputs": [
				{
					"internalType": "address",
					"name": "poolAddress_",
					"type": "address"
				},
				{
					"internalType": "int24",
					"name": "lowerTick",
					"type": "int24"
				},
				{
					"internalType": "int24",
					"name": "upperTick",
					"type": "int24"
				},
				{
					"internalType": "uint128",
					"name": "liquidity",
					"type": "uint128"
				},
				{
					"internalType": "bytes",
					"name": "data",
					"type": "bytes"
				}
			],
			"name": "mint",
			"outputs": [
				{
					"internalType": "uint256",
					"name": "",
					"type": "uint256"
				},
				{
					"internalType": "uint256",
					"name": "",
					"type": "uint256"
				}
			],
			"stateMutability": "nonpayable",
			"type": "function"
		},
		{
			"inputs": [
				{
					"internalType": "address",
					"name": "poolAddress_",
					"type": "address"
				},
				{
					"internalType": "bool",
					"name": "zeroForOne",
					"type": "bool"
				},
				{
					"internalType": "uint256",
					"name": "amountSpecified",
					"type": "uint256"
				},
				{
					"internalType": "bytes",
					"name": "data",
					"type": "bytes"
				}
			],
			"name": "swap",
			"outputs": [
				{
					"internalType": "int256",
					"name": "",
					"type": "int256"
				},
				{
					"internalType": "int256",
					"name": "",
					"type": "int256"
				}
			],
			"stateMutability": "nonpayable",
			"type": "function"
		},
		{
			"inputs": [
				{
					"internalType": "uint256",
					"name": "amount0",
					"type": "uint256"
				},
				{
					"internalType": "uint256",
					"name": "amount1",
					"type": "uint256"
				},
				{
					"internalType": "bytes",
					"name": "data",
					"type": "bytes"
				}
			],
			"name": "uniswapV3MintCallback",
			"outputs": [],
			"stateMutability": "nonpayable",
			"type": "function"
		},
		{
			"inputs": [
				{
					"internalType": "int256",
					"name": "amount0",
					"type": "int256"
				},
				{
					"internalType": "int256",
					"name": "amount1",
					"type": "int256"
				},
				{
					"internalType": "bytes",
					"name": "data",
					"type": "bytes"
				}
			],
			"name": "uniswapV3SwapCallback",
			"outputs": [],
			"stateMutability": "nonpayable",
			"type": "function"
		}
	]
}